{
  "_format": "hh-sol-artifact-1",
  "contractName": "SupplyChain",
  "sourceName": "contracts/SupplyChain.sol",
  "abi": [
    {
      "inputs": [],
      "stateMutability": "nonpayable",
      "type": "constructor"
    },
    {
      "anonymous": false,
      "inputs": [
        {
          "indexed": true,
          "internalType": "uint256",
          "name": "batchId",
          "type": "uint256"
        },
        {
          "indexed": true,
          "internalType": "address",
          "name": "regulator",
          "type": "address"
        }
      ],
      "name": "BatchCertified",
      "type": "event"
    },
    {
      "anonymous": false,
      "inputs": [
        {
          "indexed": true,
          "internalType": "uint256",
          "name": "batchId",
          "type": "uint256"
        },
        {
          "indexed": true,
          "internalType": "address",
          "name": "producer",
          "type": "address"
        },
        {
          "indexed": false,
          "internalType": "string",
          "name": "productType",
          "type": "string"
        }
      ],
      "name": "BatchCreated",
      "type": "event"
    },
    {
      "anonymous": false,
      "inputs": [
        {
          "indexed": true,
          "internalType": "uint256",
          "name": "batchId",
          "type": "uint256"
        },
        {
          "indexed": false,
          "internalType": "enum SupplyChain.Status",
          "name": "newStatus",
          "type": "uint8"
        },
        {
          "indexed": true,
          "internalType": "address",
          "name": "updatedBy",
          "type": "address"
        },
        {
          "indexed": false,
          "internalType": "string",
          "name": "location",
          "type": "string"
        }
      ],
      "name": "BatchStatusUpdated",
      "type": "event"
    },
    {
      "anonymous": false,
      "inputs": [
        {
          "indexed": true,
          "internalType": "uint256",
          "name": "batchId",
          "type": "uint256"
        },
        {
          "indexed": true,
          "internalType": "address",
          "name": "from",
          "type": "address"
        },
        {
          "indexed": true,
          "internalType": "address",
          "name": "to",
          "type": "address"
        }
      ],
      "name": "BatchTransferred",
      "type": "event"
    },
    {
      "anonymous": false,
      "inputs": [
        {
          "indexed": true,
          "internalType": "address",
          "name": "user",
          "type": "address"
        }
      ],
      "name": "UserDeactivated",
      "type": "event"
    },
    {
      "anonymous": false,
      "inputs": [
        {
          "indexed": true,
          "internalType": "address",
          "name": "user",
          "type": "address"
        },
        {
          "indexed": false,
          "internalType": "string",
          "name": "name",
          "type": "string"
        },
        {
          "indexed": false,
          "internalType": "enum SupplyChain.Role",
          "name": "role",
          "type": "uint8"
        }
      ],
      "name": "UserRegistered",
      "type": "event"
    },
    {
      "inputs": [],
      "name": "admin",
      "outputs": [
        {
          "internalType": "address",
          "name": "",
          "type": "address"
        }
      ],
      "stateMutability": "view",
      "type": "function"
    },
    {
      "inputs": [],
      "name": "batchCount",
      "outputs": [
        {
          "internalType": "uint256",
          "name": "",
          "type": "uint256"
        }
      ],
      "stateMutability": "view",
      "type": "function"
    },
    {
      "inputs": [
        {
          "internalType": "uint256",
          "name": "",
          "type": "uint256"
        },
        {
          "internalType": "uint256",
          "name": "",
          "type": "uint256"
        }
      ],
      "name": "batchHistory",
      "outputs": [
        {
          "internalType": "uint256",
          "name": "timestamp",
          "type": "uint256"
        },
        {
          "internalType": "string",
          "name": "location",
          "type": "string"
        },
        {
          "internalType": "address",
          "name": "handler",
          "type": "address"
        },
        {
          "internalType": "enum SupplyChain.Status",
          "name": "status",
          "type": "uint8"
        },
        {
          "internalType": "string",
          "name": "notes",
          "type": "string"
        }
      ],
      "stateMutability": "view",
      "type": "function"
    },
    {
      "inputs": [
        {
          "internalType": "uint256",
          "name": "",
          "type": "uint256"
        }
      ],
      "name": "batchIds",
      "outputs": [
        {
          "internalType": "uint256",
          "name": "",
          "type": "uint256"
        }
      ],
      "stateMutability": "view",
      "type": "function"
    },
    {
      "inputs": [
        {
          "internalType": "uint256",
          "name": "",
          "type": "uint256"
        }
      ],
      "name": "batches",
      "outputs": [
        {
          "internalType": "uint256",
          "name": "id",
          "type": "uint256"
        },
        {
          "internalType": "string",
          "name": "productType",
          "type": "string"
        },
        {
          "internalType": "enum SupplyChain.Category",
          "name": "category",
          "type": "uint8"
        },
        {
          "internalType": "string",
          "name": "origin",
          "type": "string"
        },
        {
          "internalType": "uint256",
          "name": "creationDate",
          "type": "uint256"
        },
        {
          "internalType": "enum SupplyChain.Status",
          "name": "status",
          "type": "uint8"
        },
        {
          "internalType": "address",
          "name": "currentHolder",
          "type": "address"
        },
        {
          "internalType": "bool",
          "name": "certified",
          "type": "bool"
        },
        {
          "internalType": "address",
          "name": "producer",
          "type": "address"
        }
      ],
      "stateMutability": "view",
      "type": "function"
    },
    {
      "inputs": [
        {
          "internalType": "uint256",
          "name": "_batchId",
          "type": "uint256"
        }
      ],
      "name": "certifyBatch",
      "outputs": [],
      "stateMutability": "nonpayable",
      "type": "function"
    },
    {
      "inputs": [
        {
          "internalType": "string",
          "name": "_productType",
          "type": "string"
        },
        {
          "internalType": "enum SupplyChain.Category",
          "name": "_category",
          "type": "uint8"
        },
        {
          "internalType": "string",
          "name": "_origin",
          "type": "string"
        }
      ],
      "name": "createBatch",
      "outputs": [
        {
          "internalType": "uint256",
          "name": "batchId",
          "type": "uint256"
        }
      ],
      "stateMutability": "nonpayable",
      "type": "function"
    },
    {
      "inputs": [
        {
          "internalType": "address",
          "name": "_userAddress",
          "type": "address"
        }
      ],
      "name": "deactivateUser",
      "outputs": [],
      "stateMutability": "nonpayable",
      "type": "function"
    },
    {
      "inputs": [],
      "name": "getAllBatchIds",
      "outputs": [
        {
          "internalType": "uint256[]",
          "name": "",
          "type": "uint256[]"
        }
      ],
      "stateMutability": "view",
      "type": "function"
    },
    {
      "inputs": [],
      "name": "getAllUserAddresses",
      "outputs": [
        {
          "internalType": "address[]",
          "name": "",
          "type": "address[]"
        }
      ],
      "stateMutability": "view",
      "type": "function"
    },
    {
      "inputs": [
        {
          "internalType": "uint256",
          "name": "_batchId",
          "type": "uint256"
        }
      ],
      "name": "getBatch",
      "outputs": [
        {
          "components": [
            {
              "internalType": "uint256",
              "name": "id",
              "type": "uint256"
            },
            {
              "internalType": "string",
              "name": "productType",
              "type": "string"
            },
            {
              "internalType": "enum SupplyChain.Category",
              "name": "category",
              "type": "uint8"
            },
            {
              "internalType": "string",
              "name": "origin",
              "type": "string"
            },
            {
              "internalType": "uint256",
              "name": "creationDate",
              "type": "uint256"
            },
            {
              "internalType": "enum SupplyChain.Status",
              "name": "status",
              "type": "uint8"
            },
            {
              "internalType": "address",
              "name": "currentHolder",
              "type": "address"
            },
            {
              "internalType": "bool",
              "name": "certified",
              "type": "bool"
            },
            {
              "internalType": "address",
              "name": "producer",
              "type": "address"
            }
          ],
          "internalType": "struct SupplyChain.Batch",
          "name": "",
          "type": "tuple"
        }
      ],
      "stateMutability": "view",
      "type": "function"
    },
    {
      "inputs": [
        {
          "internalType": "uint256",
          "name": "_batchId",
          "type": "uint256"
        }
      ],
      "name": "getBatchHistory",
      "outputs": [
        {
          "components": [
            {
              "internalType": "uint256",
              "name": "timestamp",
              "type": "uint256"
            },
            {
              "internalType": "string",
              "name": "location",
              "type": "string"
            },
            {
              "internalType": "address",
              "name": "handler",
              "type": "address"
            },
            {
              "internalType": "enum SupplyChain.Status",
              "name": "status",
              "type": "uint8"
            },
            {
              "internalType": "string",
              "name": "notes",
              "type": "string"
            }
          ],
          "internalType": "struct SupplyChain.Checkpoint[]",
          "name": "",
          "type": "tuple[]"
        }
      ],
      "stateMutability": "view",
      "type": "function"
    },
    {
      "inputs": [
        {
          "internalType": "uint256",
          "name": "_batchId",
          "type": "uint256"
        }
      ],
      "name": "getBatchHistoryCount",
      "outputs": [
        {
          "internalType": "uint256",
          "name": "",
          "type": "uint256"
        }
      ],
      "stateMutability": "view",
      "type": "function"
    },
    {
      "inputs": [
        {
          "internalType": "address",
          "name": "_userAddress",
          "type": "address"
        }
      ],
      "name": "getUser",
      "outputs": [
        {
          "components": [
            {
              "internalType": "address",
              "name": "userAddress",
              "type": "address"
            },
            {
              "internalType": "string",
              "name": "name",
              "type": "string"
            },
            {
              "internalType": "enum SupplyChain.Role",
              "name": "role",
              "type": "uint8"
            },
            {
              "internalType": "bool",
              "name": "active",
              "type": "bool"
            }
          ],
          "internalType": "struct SupplyChain.User",
          "name": "",
          "type": "tuple"
        }
      ],
      "stateMutability": "view",
      "type": "function"
    },
    {
      "inputs": [],
      "name": "getUserCount",
      "outputs": [
        {
          "internalType": "uint256",
          "name": "",
          "type": "uint256"
        }
      ],
      "stateMutability": "view",
      "type": "function"
    },
    {
      "inputs": [
        {
          "internalType": "address",
          "name": "_userAddress",
          "type": "address"
        },
        {
          "internalType": "string",
          "name": "_name",
          "type": "string"
        },
        {
          "internalType": "enum SupplyChain.Role",
          "name": "_role",
          "type": "uint8"
        }
      ],
      "name": "registerUser",
      "outputs": [],
      "stateMutability": "nonpayable",
      "type": "function"
    },
    {
      "inputs": [
        {
          "internalType": "uint256",
          "name": "_batchId",
          "type": "uint256"
        },
        {
          "internalType": "address",
          "name": "_newHolder",
          "type": "address"
        }
      ],
      "name": "transferBatch",
      "outputs": [],
      "stateMutability": "nonpayable",
      "type": "function"
    },
    {
      "inputs": [
        {
          "internalType": "uint256",
          "name": "_batchId",
          "type": "uint256"
        },
        {
          "internalType": "enum SupplyChain.Status",
          "name": "_newStatus",
          "type": "uint8"
        },
        {
          "internalType": "string",
          "name": "_location",
          "type": "string"
        },
        {
          "internalType": "string",
          "name": "_notes",
          "type": "string"
        }
      ],
      "name": "updateBatchStatus",
      "outputs": [],
      "stateMutability": "nonpayable",
      "type": "function"
    },
    {
      "inputs": [
        {
          "internalType": "uint256",
          "name": "",
          "type": "uint256"
        }
      ],
      "name": "userAddresses",
      "outputs": [
        {
          "internalType": "address",
          "name": "",
          "type": "address"
        }
      ],
      "stateMutability": "view",
      "type": "function"
    },
    {
      "inputs": [
        {
          "internalType": "address",
          "name": "",
          "type": "address"
        }
      ],
      "name": "users",
      "outputs": [
        {
          "internalType": "address",
          "name": "userAddress",
          "type": "address"
        },
        {
          "internalType": "string",
          "name": "name",
          "type": "string"
        },
        {
          "internalType": "enum SupplyChain.Role",
          "name": "role",
          "type": "uint8"
        },
        {
          "internalType": "bool",
          "name": "active",
          "type": "bool"
        }
      ],
      "stateMutability": "view",
      "type": "function"
    }
  ],
  "bytecode": "0x608060405234801561001057600080fd5b50336000806101000a81548173ffffffffffffffffffffffffffffffffffffffff021916908373ffffffffffffffffffffffffffffffffffffffff16021790555060405180608001604052803373ffffffffffffffffffffffffffffffffffffffff1681526020016040518060400160405280600581526020017f41646d696e0000000000000000000000000000000000000000000000000000008152508152602001600160068111156100c7576100c6610279565b5b815260200160011515815250600260003373ffffffffffffffffffffffffffffffffffffffff1673ffffffffffffffffffffffffffffffffffffffff16815260200190815260200160002060008201518160000160006101000a81548173ffffffffffffffffffffffffffffffffffffffff021916908373ffffffffffffffffffffffffffffffffffffffff160217905550602082015181600101908161016e91906104f8565b5060408201518160020160006101000a81548160ff0219169083600681111561019a57610199610279565b5b021790555060608201518160020160016101000a81548160ff0219169083151502179055509050506005339080600181540180825580915050600190039060005260206000200160009091909190916101000a81548173ffffffffffffffffffffffffffffffffffffffff021916908373ffffffffffffffffffffffffffffffffffffffff1602179055503373ffffffffffffffffffffffffffffffffffffffff167fc2e5d5da58bd71d1a2d14cdef02a4256d971b728088f8190d067ccfbae3bd73e600160405161026c919061066f565b60405180910390a261069d565b7f4e487b7100000000000000000000000000000000000000000000000000000000600052602160045260246000fd5b600081519050919050565b7f4e487b7100000000000000000000000000000000000000000000000000000000600052604160045260246000fd5b7f4e487b7100000000000000000000000000000000000000000000000000000000600052602260045260246000fd5b6000600282049050600182168061032957607f821691505b60208210810361033c5761033b6102e2565b5b50919050565b60008190508160005260206000209050919050565b60006020601f8301049050919050565b600082821b905092915050565b6000600883026103a47fffffffffffffffffffffffffffffffffffffffffffffffffffffffffffffffff82610367565b6103ae8683610367565b95508019841693508086168417925050509392505050565b6000819050919050565b6000819050919050565b60006103f56103f06103eb846103c6565b6103d0565b6103c6565b9050919050565b6000819050919050565b61040f836103da565b61042361041b826103fc565b848454610374565b825550505050565b600090565b61043861042b565b610443818484610406565b505050565b5b818110156104675761045c600082610430565b600181019050610449565b5050565b601f8211156104ac5761047d81610342565b61048684610357565b81016020851015610495578190505b6104a96104a185610357565b830182610448565b50505b505050565b600082821c905092915050565b60006104cf600019846008026104b1565b1980831691505092915050565b60006104e883836104be565b9150826002028217905092915050565b610501826102a8565b67ffffffffffffffff81111561051a576105196102b3565b5b6105248254610311565b61052f82828561046b565b600060209050601f8311600181146105625760008415610550578287015190505b61055a85826104dc565b8655506105c2565b601f19841661057086610342565b60005b8281101561059857848901518255600182019150602085019450602081019050610573565b868310156105b557848901516105b1601f8916826104be565b8355505b6001600288020188555050505b505050505050565b600082825260208201905092915050565b7f41646d696e000000000000000000000000000000000000000000000000000000600082015250565b60006106116005836105ca565b915061061c826105db565b602082019050919050565b6007811061063857610637610279565b5b50565b600081905061064982610627565b919050565b60006106598261063b565b9050919050565b6106698161064e565b82525050565b6000604082019050818103600083015261068881610604565b90506106976020830184610660565b92915050565b6144f3806106ac6000396000f3fe608060405234801561001057600080fd5b506004361061012c5760003560e01c806381efad24116100ad578063b3d346b911610071578063b3d346b914610388578063b5cb15f7146103b8578063bce06947146103d6578063c7a8ccb1146103f4578063f851a440146104245761012c565b806381efad24146102b15780639000cb96146102cd578063a87430ba14610301578063ac99998514610334578063b32c4d8d146103505761012c565b80632f330023116100f45780632f330023146101e7578063502c9bd5146102055780635ac4428214610235578063621f2b0e146102655780636f77926b146102815761012c565b806306f1305614610131578063171d44dd1461014f5780631a47767b1461016b57806326c54f6d146101875780632b2ce593146101b7575b600080fd5b610139610442565b6040516101469190612c1a565b60405180910390f35b61016960048036038101906101649190612c6b565b610448565b005b61018560048036038101906101809190612cf6565b610821565b005b6101a1600480360381019061019c9190612dad565b610a6d565b6040516101ae9190612c1a565b60405180910390f35b6101d160048036038101906101cc9190612c6b565b611052565b6040516101de9190612c1a565b60405180910390f35b6101ef611072565b6040516101fc9190612f00565b60405180910390f35b61021f600480360381019061021a9190612c6b565b611100565b60405161022c9190612f31565b60405180910390f35b61024f600480360381019061024a9190612c6b565b61113f565b60405161025c9190613191565b60405180910390f35b61027f600480360381019061027a91906131b3565b611433565b005b61029b60048036038101906102969190612cf6565b6117a6565b6040516102a8919061329e565b60405180910390f35b6102cb60048036038101906102c691906132e5565b61193d565b005b6102e760048036038101906102e29190613359565b611d6b565b6040516102f89594939291906133f2565b60405180910390f35b61031b60048036038101906103169190612cf6565b611efb565b60405161032b9493929190613471565b60405180910390f35b61034e600480360381019061034991906134e2565b611fed565b005b61036a60048036038101906103659190612c6b565b61261d565b60405161037f99989796959493929190613598565b60405180910390f35b6103a2600480360381019061039d9190612c6b565b6127e2565b6040516103af9190612c1a565b60405180910390f35b6103c0612806565b6040516103cd9190612c1a565b60405180910390f35b6103de612813565b6040516103eb91906136e2565b60405180910390f35b61040e60048036038101906104099190612c6b565b61286b565b60405161041b9190613843565b60405180910390f35b61042c612aed565b6040516104399190612f31565b60405180910390f35b60015481565b60068081111561045b5761045a612feb565b5b600260003373ffffffffffffffffffffffffffffffffffffffff1673ffffffffffffffffffffffffffffffffffffffff16815260200190815260200160002060020160009054906101000a900460ff1660068111156104bd576104bc612feb565b5b1480156105165750600260003373ffffffffffffffffffffffffffffffffffffffff1673ffffffffffffffffffffffffffffffffffffffff16815260200190815260200160002060020160019054906101000a900460ff165b610555576040517f08c379a000000000000000000000000000000000000000000000000000000000815260040161054c906138b1565b60405180910390fd5b60008111801561056757506001548111155b6105a6576040517f08c379a000000000000000000000000000000000000000000000000000000000815260040161059d9061391d565b60405180910390fd5b6003600082815260200190815260200160002060050160159054906101000a900460ff161561060a576040517f08c379a000000000000000000000000000000000000000000000000000000000815260040161060190613989565b60405180910390fd5b60016003600083815260200190815260200160002060050160156101000a81548160ff021916908315150217905550600460008281526020019081526020016000206040518060a001604052804281526020016040518060200160405280600081525081526020013373ffffffffffffffffffffffffffffffffffffffff1681526020016003600085815260200190815260200160002060050160009054906101000a900460ff1660038111156106c4576106c3612feb565b5b81526020016040518060400160405280601681526020017f43657274696669656420627920726567756c61746f7200000000000000000000815250815250908060018154018082558091505060019003906000526020600020906004020160009091909190915060008201518160000155602082015181600101908161074a9190613be4565b5060408201518160020160006101000a81548173ffffffffffffffffffffffffffffffffffffffff021916908373ffffffffffffffffffffffffffffffffffffffff16021790555060608201518160020160146101000a81548160ff021916908360038111156107bd576107bc612feb565b5b021790555060808201518160030190816107d79190613be4565b5050503373ffffffffffffffffffffffffffffffffffffffff16817fe9032a38d3bb348b07a81e09f3e2520d5c794cf6ccf9f98e243b51f3f11f675d60405160405180910390a350565b60008054906101000a900473ffffffffffffffffffffffffffffffffffffffff1673ffffffffffffffffffffffffffffffffffffffff163373ffffffffffffffffffffffffffffffffffffffff16146108af576040517f08c379a00000000000000000000000000000000000000000000000000000000081526004016108a690613d02565b60405180910390fd5b600260008273ffffffffffffffffffffffffffffffffffffffff1673ffffffffffffffffffffffffffffffffffffffff16815260200190815260200160002060020160019054906101000a900460ff1661093e576040517f08c379a000000000000000000000000000000000000000000000000000000000815260040161093590613d6e565b60405180910390fd5b60008054906101000a900473ffffffffffffffffffffffffffffffffffffffff1673ffffffffffffffffffffffffffffffffffffffff168173ffffffffffffffffffffffffffffffffffffffff16036109cc576040517f08c379a00000000000000000000000000000000000000000000000000000000081526004016109c390613dda565b60405180910390fd5b6000600260008373ffffffffffffffffffffffffffffffffffffffff1673ffffffffffffffffffffffffffffffffffffffff16815260200190815260200160002060020160016101000a81548160ff0219169083151502179055508073ffffffffffffffffffffffffffffffffffffffff167f5554feec4e87bc4eba14bd62f71df68156f97d26128616fbc27d28e33b35a6b460405160405180910390a250565b600060026006811115610a8357610a82612feb565b5b600260003373ffffffffffffffffffffffffffffffffffffffff1673ffffffffffffffffffffffffffffffffffffffff16815260200190815260200160002060020160009054906101000a900460ff166006811115610ae557610ae4612feb565b5b148015610b3e5750600260003373ffffffffffffffffffffffffffffffffffffffff1673ffffffffffffffffffffffffffffffffffffffff16815260200190815260200160002060020160019054906101000a900460ff165b610b7d576040517f08c379a0000000000000000000000000000000000000000000000000000000008152600401610b7490613e46565b60405180910390fd5b60016000815480929190610b9090613e95565b9190505550600154905060405180610120016040528082815260200187878080601f016020809104026020016040519081016040528093929190818152602001838380828437600081840152601f19601f820116905080830192505050505050508152602001856001811115610c0957610c08612feb565b5b815260200184848080601f016020809104026020016040519081016040528093929190818152602001838380828437600081840152601f19601f82011690508083019250505050505050815260200142815260200160006003811115610c7257610c71612feb565b5b81526020013373ffffffffffffffffffffffffffffffffffffffff1681526020016000151581526020013373ffffffffffffffffffffffffffffffffffffffff1681525060036000838152602001908152602001600020600082015181600001556020820151816001019081610ce89190613be4565b5060408201518160020160006101000a81548160ff02191690836001811115610d1457610d13612feb565b5b02179055506060820151816003019081610d2e9190613be4565b506080820151816004015560a08201518160050160006101000a81548160ff02191690836003811115610d6457610d63612feb565b5b021790555060c08201518160050160016101000a81548173ffffffffffffffffffffffffffffffffffffffff021916908373ffffffffffffffffffffffffffffffffffffffff16021790555060e08201518160050160156101000a81548160ff0219169083151502179055506101008201518160060160006101000a81548173ffffffffffffffffffffffffffffffffffffffff021916908373ffffffffffffffffffffffffffffffffffffffff1602179055509050506006819080600181540180825580915050600190039060005260206000200160009091909190915055600460008281526020019081526020016000206040518060a0016040528042815260200185858080601f016020809104026020016040519081016040528093929190818152602001838380828437600081840152601f19601f8201169050808301925050505050505081526020013373ffffffffffffffffffffffffffffffffffffffff16815260200160006003811115610ee257610ee1612feb565b5b81526020016040518060400160405280601981526020017f426174636820637265617465642062792070726f6475636572000000000000008152508152509080600181540180825580915050600190039060005260206000209060040201600090919091909150600082015181600001556020820151816001019081610f689190613be4565b5060408201518160020160006101000a81548173ffffffffffffffffffffffffffffffffffffffff021916908373ffffffffffffffffffffffffffffffffffffffff16021790555060608201518160020160146101000a81548160ff02191690836003811115610fdb57610fda612feb565b5b02179055506080820151816003019081610ff59190613be4565b5050503373ffffffffffffffffffffffffffffffffffffffff16817f455fe5771863ad206137a00ecd2103bf528ba811090f3610fb2045972787ea448888604051611041929190613f19565b60405180910390a395945050505050565b600060046000838152602001908152602001600020805490509050919050565b606060058054806020026020016040519081016040528092919081815260200182805480156110f657602002820191906000526020600020905b8160009054906101000a900473ffffffffffffffffffffffffffffffffffffffff1673ffffffffffffffffffffffffffffffffffffffff16815260200190600101908083116110ac575b5050505050905090565b6005818154811061111057600080fd5b906000526020600020016000915054906101000a900473ffffffffffffffffffffffffffffffffffffffff1681565b611147612b11565b60008211801561115957506001548211155b611198576040517f08c379a000000000000000000000000000000000000000000000000000000000815260040161118f9061391d565b60405180910390fd5b6003600083815260200190815260200160002060405180610120016040529081600082015481526020016001820180546111d190613a07565b80601f01602080910402602001604051908101604052809291908181526020018280546111fd90613a07565b801561124a5780601f1061121f5761010080835404028352916020019161124a565b820191906000526020600020905b81548152906001019060200180831161122d57829003601f168201915b505050505081526020016002820160009054906101000a900460ff16600181111561127857611277612feb565b5b600181111561128a57611289612feb565b5b815260200160038201805461129e90613a07565b80601f01602080910402602001604051908101604052809291908181526020018280546112ca90613a07565b80156113175780601f106112ec57610100808354040283529160200191611317565b820191906000526020600020905b8154815290600101906020018083116112fa57829003601f168201915b50505050508152602001600482015481526020016005820160009054906101000a900460ff16600381111561134f5761134e612feb565b5b600381111561136157611360612feb565b5b81526020016005820160019054906101000a900473ffffffffffffffffffffffffffffffffffffffff1673ffffffffffffffffffffffffffffffffffffffff1673ffffffffffffffffffffffffffffffffffffffff1681526020016005820160159054906101000a900460ff161515151581526020016006820160009054906101000a900473ffffffffffffffffffffffffffffffffffffffff1673ffffffffffffffffffffffffffffffffffffffff1673ffffffffffffffffffffffffffffffffffffffff16815250509050919050565b600260003373ffffffffffffffffffffffffffffffffffffffff1673ffffffffffffffffffffffffffffffffffffffff16815260200190815260200160002060020160019054906101000a900460ff166114c2576040517f08c379a00000000000000000000000000000000000000000000000000000000081526004016114b990613faf565b60405180910390fd5b813373ffffffffffffffffffffffffffffffffffffffff166003600083815260200190815260200160002060050160019054906101000a900473ffffffffffffffffffffffffffffffffffffffff1673ffffffffffffffffffffffffffffffffffffffff1614611567576040517f08c379a000000000000000000000000000000000000000000000000000000000815260040161155e90614041565b60405180910390fd5b60008311801561157957506001548311155b6115b8576040517f08c379a00000000000000000000000000000000000000000000000000000000081526004016115af9061391d565b60405180910390fd5b600260008373ffffffffffffffffffffffffffffffffffffffff1673ffffffffffffffffffffffffffffffffffffffff16815260200190815260200160002060020160019054906101000a900460ff16611647576040517f08c379a000000000000000000000000000000000000000000000000000000000815260040161163e906140d3565b60405180910390fd5b3373ffffffffffffffffffffffffffffffffffffffff168273ffffffffffffffffffffffffffffffffffffffff16036116b5576040517f08c379a00000000000000000000000000000000000000000000000000000000081526004016116ac9061413f565b60405180910390fd5b60006003600085815260200190815260200160002060050160019054906101000a900473ffffffffffffffffffffffffffffffffffffffff169050826003600086815260200190815260200160002060050160016101000a81548173ffffffffffffffffffffffffffffffffffffffff021916908373ffffffffffffffffffffffffffffffffffffffff1602179055508273ffffffffffffffffffffffffffffffffffffffff168173ffffffffffffffffffffffffffffffffffffffff16857fb9f31d1b8db0327a09cde76de6662ee23a4ecd72fbb0411cdfa7969fed7abe4460405160405180910390a450505050565b6117ae612baf565b600260008373ffffffffffffffffffffffffffffffffffffffff1673ffffffffffffffffffffffffffffffffffffffff1681526020019081526020016000206040518060800160405290816000820160009054906101000a900473ffffffffffffffffffffffffffffffffffffffff1673ffffffffffffffffffffffffffffffffffffffff1673ffffffffffffffffffffffffffffffffffffffff16815260200160018201805461185e90613a07565b80601f016020809104026020016040519081016040528092919081815260200182805461188a90613a07565b80156118d75780601f106118ac576101008083540402835291602001916118d7565b820191906000526020600020905b8154815290600101906020018083116118ba57829003601f168201915b505050505081526020016002820160009054906101000a900460ff16600681111561190557611904612feb565b5b600681111561191757611916612feb565b5b81526020016002820160019054906101000a900460ff1615151515815250509050919050565b60008054906101000a900473ffffffffffffffffffffffffffffffffffffffff1673ffffffffffffffffffffffffffffffffffffffff163373ffffffffffffffffffffffffffffffffffffffff16146119cb576040517f08c379a00000000000000000000000000000000000000000000000000000000081526004016119c290613d02565b60405180910390fd5b600073ffffffffffffffffffffffffffffffffffffffff168473ffffffffffffffffffffffffffffffffffffffff1603611a3a576040517f08c379a0000000000000000000000000000000000000000000000000000000008152600401611a31906141ab565b60405180910390fd5b60006006811115611a4e57611a4d612feb565b5b816006811115611a6157611a60612feb565b5b03611aa1576040517f08c379a0000000000000000000000000000000000000000000000000000000008152600401611a9890614217565b60405180910390fd5b600260008573ffffffffffffffffffffffffffffffffffffffff1673ffffffffffffffffffffffffffffffffffffffff16815260200190815260200160002060020160019054906101000a900460ff1615611b31576040517f08c379a0000000000000000000000000000000000000000000000000000000008152600401611b2890614283565b60405180910390fd5b60405180608001604052808573ffffffffffffffffffffffffffffffffffffffff16815260200184848080601f016020809104026020016040519081016040528093929190818152602001838380828437600081840152601f19601f820116905080830192505050505050508152602001826006811115611bb557611bb4612feb565b5b815260200160011515815250600260008673ffffffffffffffffffffffffffffffffffffffff1673ffffffffffffffffffffffffffffffffffffffff16815260200190815260200160002060008201518160000160006101000a81548173ffffffffffffffffffffffffffffffffffffffff021916908373ffffffffffffffffffffffffffffffffffffffff1602179055506020820151816001019081611c5c9190613be4565b5060408201518160020160006101000a81548160ff02191690836006811115611c8857611c87612feb565b5b021790555060608201518160020160016101000a81548160ff0219169083151502179055509050506005849080600181540180825580915050600190039060005260206000200160009091909190916101000a81548173ffffffffffffffffffffffffffffffffffffffff021916908373ffffffffffffffffffffffffffffffffffffffff1602179055508373ffffffffffffffffffffffffffffffffffffffff167fc2e5d5da58bd71d1a2d14cdef02a4256d971b728088f8190d067ccfbae3bd73e848484604051611d5d939291906142a3565b60405180910390a250505050565b60046020528160005260406000208181548110611d8757600080fd5b906000526020600020906004020160009150915050806000015490806001018054611db190613a07565b80601f0160208091040260200160405190810160405280929190818152602001828054611ddd90613a07565b8015611e2a5780601f10611dff57610100808354040283529160200191611e2a565b820191906000526020600020905b815481529060010190602001808311611e0d57829003601f168201915b5050505050908060020160009054906101000a900473ffffffffffffffffffffffffffffffffffffffff16908060020160149054906101000a900460ff1690806003018054611e7890613a07565b80601f0160208091040260200160405190810160405280929190818152602001828054611ea490613a07565b8015611ef15780601f10611ec657610100808354040283529160200191611ef1565b820191906000526020600020905b815481529060010190602001808311611ed457829003601f168201915b5050505050905085565b60026020528060005260406000206000915090508060000160009054906101000a900473ffffffffffffffffffffffffffffffffffffffff1690806001018054611f4490613a07565b80601f0160208091040260200160405190810160405280929190818152602001828054611f7090613a07565b8015611fbd5780601f10611f9257610100808354040283529160200191611fbd565b820191906000526020600020905b815481529060010190602001808311611fa057829003601f168201915b5050505050908060020160009054906101000a900460ff16908060020160019054906101000a900460ff16905084565b600260003373ffffffffffffffffffffffffffffffffffffffff1673ffffffffffffffffffffffffffffffffffffffff16815260200190815260200160002060020160019054906101000a900460ff1661207c576040517f08c379a000000000000000000000000000000000000000000000000000000000815260040161207390613faf565b60405180910390fd5b853373ffffffffffffffffffffffffffffffffffffffff166003600083815260200190815260200160002060050160019054906101000a900473ffffffffffffffffffffffffffffffffffffffff1673ffffffffffffffffffffffffffffffffffffffff1614612121576040517f08c379a000000000000000000000000000000000000000000000000000000000815260040161211890614041565b60405180910390fd5b60008711801561213357506001548711155b612172576040517f08c379a00000000000000000000000000000000000000000000000000000000081526004016121699061391d565b60405180910390fd5b60006003600089815260200190815260200160002090506000600260003373ffffffffffffffffffffffffffffffffffffffff1673ffffffffffffffffffffffffffffffffffffffff16815260200190815260200160002060020160009054906101000a900460ff169050600160038111156121f1576121f0612feb565b5b88600381111561220457612203612feb565b5b036122a4576004600681111561221d5761221c612feb565b5b8160068111156122305761222f612feb565b5b148061226057506002600681111561224b5761224a612feb565b5b81600681111561225e5761225d612feb565b5b145b61229f576040517f08c379a000000000000000000000000000000000000000000000000000000000815260040161229690614347565b60405180910390fd5b6123d1565b600260038111156122b8576122b7612feb565b5b8860038111156122cb576122ca612feb565b5b0361233c57600360068111156122e4576122e3612feb565b5b8160068111156122f7576122f6612feb565b5b14612337576040517f08c379a000000000000000000000000000000000000000000000000000000000815260040161232e906143d9565b60405180910390fd5b6123d0565b60038081111561234f5761234e612feb565b5b88600381111561236257612361612feb565b5b036123cf576005600681111561237b5761237a612feb565b5b81600681111561238e5761238d612feb565b5b146123ce576040517f08c379a00000000000000000000000000000000000000000000000000000000081526004016123c59061446b565b60405180910390fd5b5b5b5b878260050160006101000a81548160ff021916908360038111156123f8576123f7612feb565b5b0217905550600460008a81526020019081526020016000206040518060a0016040528042815260200189898080601f016020809104026020016040519081016040528093929190818152602001838380828437600081840152601f19601f8201169050808301925050505050505081526020013373ffffffffffffffffffffffffffffffffffffffff1681526020018a600381111561249a57612499612feb565b5b815260200187878080601f016020809104026020016040519081016040528093929190818152602001838380828437600081840152601f19601f82011690508083019250505050505050815250908060018154018082558091505060019003906000526020600020906004020160009091909190915060008201518160000155602082015181600101908161252f9190613be4565b5060408201518160020160006101000a81548173ffffffffffffffffffffffffffffffffffffffff021916908373ffffffffffffffffffffffffffffffffffffffff16021790555060608201518160020160146101000a81548160ff021916908360038111156125a2576125a1612feb565b5b021790555060808201518160030190816125bc9190613be4565b5050503373ffffffffffffffffffffffffffffffffffffffff16897f11a80c2c58444032af790bfececa9b66ba33dce08a3ab62403c7528e85e5b6f38a8a8a60405161260a9392919061448b565b60405180910390a3505050505050505050565b600360205280600052604060002060009150905080600001549080600101805461264690613a07565b80601f016020809104026020016040519081016040528092919081815260200182805461267290613a07565b80156126bf5780601f10612694576101008083540402835291602001916126bf565b820191906000526020600020905b8154815290600101906020018083116126a257829003601f168201915b5050505050908060020160009054906101000a900460ff16908060030180546126e790613a07565b80601f016020809104026020016040519081016040528092919081815260200182805461271390613a07565b80156127605780601f1061273557610100808354040283529160200191612760565b820191906000526020600020905b81548152906001019060200180831161274357829003601f168201915b5050505050908060040154908060050160009054906101000a900460ff16908060050160019054906101000a900473ffffffffffffffffffffffffffffffffffffffff16908060050160159054906101000a900460ff16908060060160009054906101000a900473ffffffffffffffffffffffffffffffffffffffff16905089565b600681815481106127f257600080fd5b906000526020600020016000915090505481565b6000600580549050905090565b6060600680548060200260200160405190810160405280929190818152602001828054801561286157602002820191906000526020600020905b81548152602001906001019080831161284d575b5050505050905090565b606060008211801561287f57506001548211155b6128be576040517f08c379a00000000000000000000000000000000000000000000000000000000081526004016128b59061391d565b60405180910390fd5b60046000838152602001908152602001600020805480602002602001604051908101604052809291908181526020016000905b82821015612ae257838290600052602060002090600402016040518060a00160405290816000820154815260200160018201805461292e90613a07565b80601f016020809104026020016040519081016040528092919081815260200182805461295a90613a07565b80156129a75780601f1061297c576101008083540402835291602001916129a7565b820191906000526020600020905b81548152906001019060200180831161298a57829003601f168201915b505050505081526020016002820160009054906101000a900473ffffffffffffffffffffffffffffffffffffffff1673ffffffffffffffffffffffffffffffffffffffff1673ffffffffffffffffffffffffffffffffffffffff1681526020016002820160149054906101000a900460ff166003811115612a2b57612a2a612feb565b5b6003811115612a3d57612a3c612feb565b5b8152602001600382018054612a5190613a07565b80601f0160208091040260200160405190810160405280929190818152602001828054612a7d90613a07565b8015612aca5780601f10612a9f57610100808354040283529160200191612aca565b820191906000526020600020905b815481529060010190602001808311612aad57829003601f168201915b505050505081525050815260200190600101906128f1565b505050509050919050565b60008054906101000a900473ffffffffffffffffffffffffffffffffffffffff1681565b604051806101200160405280600081526020016060815260200160006001811115612b3f57612b3e612feb565b5b8152602001606081526020016000815260200160006003811115612b6657612b65612feb565b5b8152602001600073ffffffffffffffffffffffffffffffffffffffff168152602001600015158152602001600073ffffffffffffffffffffffffffffffffffffffff1681525090565b6040518060800160405280600073ffffffffffffffffffffffffffffffffffffffff1681526020016060815260200160006006811115612bf257612bf1612feb565b5b81526020016000151581525090565b6000819050919050565b612c1481612c01565b82525050565b6000602082019050612c2f6000830184612c0b565b92915050565b600080fd5b600080fd5b612c4881612c01565b8114612c5357600080fd5b50565b600081359050612c6581612c3f565b92915050565b600060208284031215612c8157612c80612c35565b5b6000612c8f84828501612c56565b91505092915050565b600073ffffffffffffffffffffffffffffffffffffffff82169050919050565b6000612cc382612c98565b9050919050565b612cd381612cb8565b8114612cde57600080fd5b50565b600081359050612cf081612cca565b92915050565b600060208284031215612d0c57612d0b612c35565b5b6000612d1a84828501612ce1565b91505092915050565b600080fd5b600080fd5b600080fd5b60008083601f840112612d4857612d47612d23565b5b8235905067ffffffffffffffff811115612d6557612d64612d28565b5b602083019150836001820283011115612d8157612d80612d2d565b5b9250929050565b60028110612d9557600080fd5b50565b600081359050612da781612d88565b92915050565b600080600080600060608688031215612dc957612dc8612c35565b5b600086013567ffffffffffffffff811115612de757612de6612c3a565b5b612df388828901612d32565b95509550506020612e0688828901612d98565b935050604086013567ffffffffffffffff811115612e2757612e26612c3a565b5b612e3388828901612d32565b92509250509295509295909350565b600081519050919050565b600082825260208201905092915050565b6000819050602082019050919050565b612e7781612cb8565b82525050565b6000612e898383612e6e565b60208301905092915050565b6000602082019050919050565b6000612ead82612e42565b612eb78185612e4d565b9350612ec283612e5e565b8060005b83811015612ef3578151612eda8882612e7d565b9750612ee583612e95565b925050600181019050612ec6565b5085935050505092915050565b60006020820190508181036000830152612f1a8184612ea2565b905092915050565b612f2b81612cb8565b82525050565b6000602082019050612f466000830184612f22565b92915050565b612f5581612c01565b82525050565b600081519050919050565b600082825260208201905092915050565b60005b83811015612f95578082015181840152602081019050612f7a565b60008484015250505050565b6000601f19601f8301169050919050565b6000612fbd82612f5b565b612fc78185612f66565b9350612fd7818560208601612f77565b612fe081612fa1565b840191505092915050565b7f4e487b7100000000000000000000000000000000000000000000000000000000600052602160045260246000fd5b6002811061302b5761302a612feb565b5b50565b600081905061303c8261301a565b919050565b600061304c8261302e565b9050919050565b61305c81613041565b82525050565b6004811061307357613072612feb565b5b50565b600081905061308482613062565b919050565b600061309482613076565b9050919050565b6130a481613089565b82525050565b60008115159050919050565b6130bf816130aa565b82525050565b6000610120830160008301516130de6000860182612f4c565b50602083015184820360208601526130f68282612fb2565b915050604083015161310b6040860182613053565b50606083015184820360608601526131238282612fb2565b91505060808301516131386080860182612f4c565b5060a083015161314b60a086018261309b565b5060c083015161315e60c0860182612e6e565b5060e083015161317160e08601826130b6565b50610100830151613186610100860182612e6e565b508091505092915050565b600060208201905081810360008301526131ab81846130c5565b905092915050565b600080604083850312156131ca576131c9612c35565b5b60006131d885828601612c56565b92505060206131e985828601612ce1565b9150509250929050565b6007811061320457613203612feb565b5b50565b6000819050613215826131f3565b919050565b600061322582613207565b9050919050565b6132358161321a565b82525050565b60006080830160008301516132536000860182612e6e565b506020830151848203602086015261326b8282612fb2565b9150506040830151613280604086018261322c565b50606083015161329360608601826130b6565b508091505092915050565b600060208201905081810360008301526132b8818461323b565b905092915050565b600781106132cd57600080fd5b50565b6000813590506132df816132c0565b92915050565b600080600080606085870312156132ff576132fe612c35565b5b600061330d87828801612ce1565b945050602085013567ffffffffffffffff81111561332e5761332d612c3a565b5b61333a87828801612d32565b9350935050604061334d878288016132d0565b91505092959194509250565b600080604083850312156133705761336f612c35565b5b600061337e85828601612c56565b925050602061338f85828601612c56565b9150509250929050565b600082825260208201905092915050565b60006133b582612f5b565b6133bf8185613399565b93506133cf818560208601612f77565b6133d881612fa1565b840191505092915050565b6133ec81613089565b82525050565b600060a0820190506134076000830188612c0b565b818103602083015261341981876133aa565b90506134286040830186612f22565b61343560608301856133e3565b818103608083015261344781846133aa565b90509695505050505050565b61345c8161321a565b82525050565b61346b816130aa565b82525050565b60006080820190506134866000830187612f22565b818103602083015261349881866133aa565b90506134a76040830185613453565b6134b46060830184613462565b95945050505050565b600481106134ca57600080fd5b50565b6000813590506134dc816134bd565b92915050565b600080600080600080608087890312156134ff576134fe612c35565b5b600061350d89828a01612c56565b965050602061351e89828a016134cd565b955050604087013567ffffffffffffffff81111561353f5761353e612c3a565b5b61354b89828a01612d32565b9450945050606087013567ffffffffffffffff81111561356e5761356d612c3a565b5b61357a89828a01612d32565b92509250509295509295509295565b61359281613041565b82525050565b6000610120820190506135ae600083018c612c0b565b81810360208301526135c0818b6133aa565b90506135cf604083018a613589565b81810360608301526135e181896133aa565b90506135f06080830188612c0b565b6135fd60a08301876133e3565b61360a60c0830186612f22565b61361760e0830185613462565b613625610100830184612f22565b9a9950505050505050505050565b600081519050919050565b600082825260208201905092915050565b6000819050602082019050919050565b600061366b8383612f4c565b60208301905092915050565b6000602082019050919050565b600061368f82613633565b613699818561363e565b93506136a48361364f565b8060005b838110156136d55781516136bc888261365f565b97506136c783613677565b9250506001810190506136a8565b5085935050505092915050565b600060208201905081810360008301526136fc8184613684565b905092915050565b600081519050919050565b600082825260208201905092915050565b6000819050602082019050919050565b600060a0830160008301516137486000860182612f4c565b50602083015184820360208601526137608282612fb2565b91505060408301516137756040860182612e6e565b506060830151613788606086018261309b565b50608083015184820360808601526137a08282612fb2565b9150508091505092915050565b60006137b98383613730565b905092915050565b6000602082019050919050565b60006137d982613704565b6137e3818561370f565b9350836020820285016137f585613720565b8060005b85811015613831578484038952815161381285826137ad565b945061381d836137c1565b925060208a019950506001810190506137f9565b50829750879550505050505092915050565b6000602082019050818103600083015261385d81846137ce565b905092915050565b7f4163636573732064656e6965643a206f6e6c7920526567756c61746f72000000600082015250565b600061389b601d83613399565b91506138a682613865565b602082019050919050565b600060208201905081810360008301526138ca8161388e565b9050919050565b7f426174636820646f6573206e6f74206578697374000000000000000000000000600082015250565b6000613907601483613399565b9150613912826138d1565b602082019050919050565b60006020820190508181036000830152613936816138fa565b9050919050565b7f426174636820616c726561647920636572746966696564000000000000000000600082015250565b6000613973601783613399565b915061397e8261393d565b602082019050919050565b600060208201905081810360008301526139a281613966565b9050919050565b7f4e487b7100000000000000000000000000000000000000000000000000000000600052604160045260246000fd5b7f4e487b7100000000000000000000000000000000000000000000000000000000600052602260045260246000fd5b60006002820490506001821680613a1f57607f821691505b602082108103613a3257613a316139d8565b5b50919050565b60008190508160005260206000209050919050565b60006020601f8301049050919050565b600082821b905092915050565b600060088302613a9a7fffffffffffffffffffffffffffffffffffffffffffffffffffffffffffffffff82613a5d565b613aa48683613a5d565b95508019841693508086168417925050509392505050565b6000819050919050565b6000613ae1613adc613ad784612c01565b613abc565b612c01565b9050919050565b6000819050919050565b613afb83613ac6565b613b0f613b0782613ae8565b848454613a6a565b825550505050565b600090565b613b24613b17565b613b2f818484613af2565b505050565b5b81811015613b5357613b48600082613b1c565b600181019050613b35565b5050565b601f821115613b9857613b6981613a38565b613b7284613a4d565b81016020851015613b81578190505b613b95613b8d85613a4d565b830182613b34565b50505b505050565b600082821c905092915050565b6000613bbb60001984600802613b9d565b1980831691505092915050565b6000613bd48383613baa565b9150826002028217905092915050565b613bed82612f5b565b67ffffffffffffffff811115613c0657613c056139a9565b5b613c108254613a07565b613c1b828285613b57565b600060209050601f831160018114613c4e5760008415613c3c578287015190505b613c468582613bc8565b865550613cae565b601f198416613c5c86613a38565b60005b82811015613c8457848901518255600182019150602085019450602081019050613c5f565b86831015613ca15784890151613c9d601f891682613baa565b8355505b6001600288020188555050505b505050505050565b7f4163636573732064656e6965643a206f6e6c792041646d696e00000000000000600082015250565b6000613cec601983613399565b9150613cf782613cb6565b602082019050919050565b60006020820190508181036000830152613d1b81613cdf565b9050919050565b7f55736572206e6f74206163746976650000000000000000000000000000000000600082015250565b6000613d58600f83613399565b9150613d6382613d22565b602082019050919050565b60006020820190508181036000830152613d8781613d4b565b9050919050565b7f43616e6e6f7420646561637469766174652061646d696e000000000000000000600082015250565b6000613dc4601783613399565b9150613dcf82613d8e565b602082019050919050565b60006020820190508181036000830152613df381613db7565b9050919050565b7f4163636573732064656e6965643a206f6e6c792050726f647563657200000000600082015250565b6000613e30601c83613399565b9150613e3b82613dfa565b602082019050919050565b60006020820190508181036000830152613e5f81613e23565b9050919050565b7f4e487b7100000000000000000000000000000000000000000000000000000000600052601160045260246000fd5b6000613ea082612c01565b91507fffffffffffffffffffffffffffffffffffffffffffffffffffffffffffffffff8203613ed257613ed1613e66565b5b600182019050919050565b82818337600083830152505050565b6000613ef88385613399565b9350613f05838584613edd565b613f0e83612fa1565b840190509392505050565b60006020820190508181036000830152613f34818486613eec565b90509392505050565b7f4163636573732064656e6965643a206e6f742072656769737465726564206f7260008201527f20696e6163746976650000000000000000000000000000000000000000000000602082015250565b6000613f99602983613399565b9150613fa482613f3d565b604082019050919050565b60006020820190508181036000830152613fc881613f8c565b9050919050565b7f4163636573732064656e6965643a206e6f742063757272656e7420686f6c646560008201527f7200000000000000000000000000000000000000000000000000000000000000602082015250565b600061402b602183613399565b915061403682613fcf565b604082019050919050565b6000602082019050818103600083015261405a8161401e565b9050919050565b7f4e657720686f6c646572206973206e6f7420612072656769737465726564207560008201527f7365720000000000000000000000000000000000000000000000000000000000602082015250565b60006140bd602383613399565b91506140c882614061565b604082019050919050565b600060208201905081810360008301526140ec816140b0565b9050919050565b7f43616e6e6f74207472616e7366657220746f20796f757273656c660000000000600082015250565b6000614129601b83613399565b9150614134826140f3565b602082019050919050565b600060208201905081810360008301526141588161411c565b9050919050565b7f496e76616c696420616464726573730000000000000000000000000000000000600082015250565b6000614195600f83613399565b91506141a08261415f565b602082019050919050565b600060208201905081810360008301526141c481614188565b9050919050565b7f526f6c652063616e6e6f74206265204e6f6e6500000000000000000000000000600082015250565b6000614201601383613399565b915061420c826141cb565b602082019050919050565b60006020820190508181036000830152614230816141f4565b9050919050565b7f5573657220616c72656164792072656769737465726564000000000000000000600082015250565b600061426d601783613399565b915061427882614237565b602082019050919050565b6000602082019050818103600083015261429c81614260565b9050919050565b600060408201905081810360008301526142be818587613eec565b90506142cd6020830184613453565b949350505050565b7f4f6e6c792057617265686f757365206f722050726f64756365722063616e207360008201527f65742053746f7265640000000000000000000000000000000000000000000000602082015250565b6000614331602983613399565b915061433c826142d5565b604082019050919050565b6000602082019050818103600083015261436081614324565b9050919050565b7f4f6e6c79205472616e73706f727465722063616e2073657420496e5472616e7360008201527f6974000000000000000000000000000000000000000000000000000000000000602082015250565b60006143c3602283613399565b91506143ce82614367565b604082019050919050565b600060208201905081810360008301526143f2816143b6565b9050919050565b7f4f6e6c79204469737472696275746f722063616e207365742044656c6976657260008201527f6564000000000000000000000000000000000000000000000000000000000000602082015250565b6000614455602283613399565b9150614460826143f9565b604082019050919050565b6000602082019050818103600083015261448481614448565b9050919050565b60006040820190506144a060008301866133e3565b81810360208301526144b3818486613eec565b905094935050505056fea2646970667358221220094563c85186340194f3b1d02c1656b315b1529660d5b3a5a311884d5c92b67564736f6c634300081b0033",
  "linkReferences": {},
  "deployedLinkReferences": {}
}