{
  "_format": "hh-sol-artifact-1",
  "contractName": "SupplyChain",
  "sourceName": "contracts/SupplyChain.sol",
  "abi": [
    {
      "inputs": [
        {
          "internalType": "bytes32",
          "name": "_adminPasswordHash",
          "type": "bytes32"
        }
      ],
      "stateMutability": "nonpayable",
      "type": "constructor"
    },
    {
      "anonymous": false,
      "inputs": [
        {
          "indexed": true,
          "internalType": "uint256",
          "name": "batchId",
          "type": "uint256"
        },
        {
          "indexed": true,
          "internalType": "address",
          "name": "regulator",
          "type": "address"
        }
      ],
      "name": "BatchCertified",
      "type": "event"
    },
    {
      "anonymous": false,
      "inputs": [
        {
          "indexed": true,
          "internalType": "uint256",
          "name": "batchId",
          "type": "uint256"
        },
        {
          "indexed": true,
          "internalType": "address",
          "name": "producer",
          "type": "address"
        },
        {
          "indexed": false,
          "internalType": "string",
          "name": "productType",
          "type": "string"
        }
      ],
      "name": "BatchCreated",
      "type": "event"
    },
    {
      "anonymous": false,
      "inputs": [
        {
          "indexed": true,
          "internalType": "uint256",
          "name": "batchId",
          "type": "uint256"
        },
        {
          "indexed": false,
          "internalType": "enum SupplyChain.Status",
          "name": "newStatus",
          "type": "uint8"
        },
        {
          "indexed": true,
          "internalType": "address",
          "name": "updatedBy",
          "type": "address"
        },
        {
          "indexed": false,
          "internalType": "string",
          "name": "location",
          "type": "string"
        }
      ],
      "name": "BatchStatusUpdated",
      "type": "event"
    },
    {
      "anonymous": false,
      "inputs": [
        {
          "indexed": true,
          "internalType": "uint256",
          "name": "batchId",
          "type": "uint256"
        },
        {
          "indexed": true,
          "internalType": "address",
          "name": "from",
          "type": "address"
        },
        {
          "indexed": true,
          "internalType": "address",
          "name": "to",
          "type": "address"
        }
      ],
      "name": "BatchTransferred",
      "type": "event"
    },
    {
      "anonymous": false,
      "inputs": [
        {
          "indexed": true,
          "internalType": "address",
          "name": "user",
          "type": "address"
        }
      ],
      "name": "UserDeactivated",
      "type": "event"
    },
    {
      "anonymous": false,
      "inputs": [
        {
          "indexed": true,
          "internalType": "address",
          "name": "user",
          "type": "address"
        },
        {
          "indexed": false,
          "internalType": "string",
          "name": "name",
          "type": "string"
        },
        {
          "indexed": false,
          "internalType": "enum SupplyChain.Role",
          "name": "role",
          "type": "uint8"
        }
      ],
      "name": "UserRegistered",
      "type": "event"
    },
    {
      "inputs": [],
      "name": "admin",
      "outputs": [
        {
          "internalType": "address",
          "name": "",
          "type": "address"
        }
      ],
      "stateMutability": "view",
      "type": "function"
    },
    {
      "inputs": [],
      "name": "batchCount",
      "outputs": [
        {
          "internalType": "uint256",
          "name": "",
          "type": "uint256"
        }
      ],
      "stateMutability": "view",
      "type": "function"
    },
    {
      "inputs": [
        {
          "internalType": "uint256",
          "name": "",
          "type": "uint256"
        },
        {
          "internalType": "uint256",
          "name": "",
          "type": "uint256"
        }
      ],
      "name": "batchHistory",
      "outputs": [
        {
          "internalType": "uint256",
          "name": "timestamp",
          "type": "uint256"
        },
        {
          "internalType": "string",
          "name": "location",
          "type": "string"
        },
        {
          "internalType": "address",
          "name": "handler",
          "type": "address"
        },
        {
          "internalType": "enum SupplyChain.Status",
          "name": "status",
          "type": "uint8"
        },
        {
          "internalType": "string",
          "name": "notes",
          "type": "string"
        }
      ],
      "stateMutability": "view",
      "type": "function"
    },
    {
      "inputs": [
        {
          "internalType": "uint256",
          "name": "",
          "type": "uint256"
        }
      ],
      "name": "batchIds",
      "outputs": [
        {
          "internalType": "uint256",
          "name": "",
          "type": "uint256"
        }
      ],
      "stateMutability": "view",
      "type": "function"
    },
    {
      "inputs": [
        {
          "internalType": "uint256",
          "name": "",
          "type": "uint256"
        }
      ],
      "name": "batches",
      "outputs": [
        {
          "internalType": "uint256",
          "name": "id",
          "type": "uint256"
        },
        {
          "internalType": "string",
          "name": "productType",
          "type": "string"
        },
        {
          "internalType": "enum SupplyChain.Category",
          "name": "category",
          "type": "uint8"
        },
        {
          "internalType": "string",
          "name": "origin",
          "type": "string"
        },
        {
          "internalType": "uint256",
          "name": "creationDate",
          "type": "uint256"
        },
        {
          "internalType": "enum SupplyChain.Status",
          "name": "status",
          "type": "uint8"
        },
        {
          "internalType": "address",
          "name": "currentHolder",
          "type": "address"
        },
        {
          "internalType": "bool",
          "name": "certified",
          "type": "bool"
        },
        {
          "internalType": "address",
          "name": "producer",
          "type": "address"
        }
      ],
      "stateMutability": "view",
      "type": "function"
    },
    {
      "inputs": [
        {
          "internalType": "uint256",
          "name": "_batchId",
          "type": "uint256"
        }
      ],
      "name": "certifyBatch",
      "outputs": [],
      "stateMutability": "nonpayable",
      "type": "function"
    },
    {
      "inputs": [
        {
          "internalType": "string",
          "name": "_productType",
          "type": "string"
        },
        {
          "internalType": "enum SupplyChain.Category",
          "name": "_category",
          "type": "uint8"
        },
        {
          "internalType": "string",
          "name": "_origin",
          "type": "string"
        }
      ],
      "name": "createBatch",
      "outputs": [
        {
          "internalType": "uint256",
          "name": "batchId",
          "type": "uint256"
        }
      ],
      "stateMutability": "nonpayable",
      "type": "function"
    },
    {
      "inputs": [
        {
          "internalType": "address",
          "name": "_userAddress",
          "type": "address"
        }
      ],
      "name": "deactivateUser",
      "outputs": [],
      "stateMutability": "nonpayable",
      "type": "function"
    },
    {
      "inputs": [
        {
          "internalType": "string",
          "name": "_username",
          "type": "string"
        }
      ],
      "name": "getAddressByUsername",
      "outputs": [
        {
          "internalType": "address",
          "name": "",
          "type": "address"
        }
      ],
      "stateMutability": "view",
      "type": "function"
    },
    {
      "inputs": [],
      "name": "getAllBatchIds",
      "outputs": [
        {
          "internalType": "uint256[]",
          "name": "",
          "type": "uint256[]"
        }
      ],
      "stateMutability": "view",
      "type": "function"
    },
    {
      "inputs": [],
      "name": "getAllUserAddresses",
      "outputs": [
        {
          "internalType": "address[]",
          "name": "",
          "type": "address[]"
        }
      ],
      "stateMutability": "view",
      "type": "function"
    },
    {
      "inputs": [
        {
          "internalType": "uint256",
          "name": "_batchId",
          "type": "uint256"
        }
      ],
      "name": "getBatch",
      "outputs": [
        {
          "components": [
            {
              "internalType": "uint256",
              "name": "id",
              "type": "uint256"
            },
            {
              "internalType": "string",
              "name": "productType",
              "type": "string"
            },
            {
              "internalType": "enum SupplyChain.Category",
              "name": "category",
              "type": "uint8"
            },
            {
              "internalType": "string",
              "name": "origin",
              "type": "string"
            },
            {
              "internalType": "uint256",
              "name": "creationDate",
              "type": "uint256"
            },
            {
              "internalType": "enum SupplyChain.Status",
              "name": "status",
              "type": "uint8"
            },
            {
              "internalType": "address",
              "name": "currentHolder",
              "type": "address"
            },
            {
              "internalType": "bool",
              "name": "certified",
              "type": "bool"
            },
            {
              "internalType": "address",
              "name": "producer",
              "type": "address"
            }
          ],
          "internalType": "struct SupplyChain.Batch",
          "name": "",
          "type": "tuple"
        }
      ],
      "stateMutability": "view",
      "type": "function"
    },
    {
      "inputs": [
        {
          "internalType": "uint256",
          "name": "_batchId",
          "type": "uint256"
        }
      ],
      "name": "getBatchHistory",
      "outputs": [
        {
          "components": [
            {
              "internalType": "uint256",
              "name": "timestamp",
              "type": "uint256"
            },
            {
              "internalType": "string",
              "name": "location",
              "type": "string"
            },
            {
              "internalType": "address",
              "name": "handler",
              "type": "address"
            },
            {
              "internalType": "enum SupplyChain.Status",
              "name": "status",
              "type": "uint8"
            },
            {
              "internalType": "string",
              "name": "notes",
              "type": "string"
            }
          ],
          "internalType": "struct SupplyChain.Checkpoint[]",
          "name": "",
          "type": "tuple[]"
        }
      ],
      "stateMutability": "view",
      "type": "function"
    },
    {
      "inputs": [
        {
          "internalType": "uint256",
          "name": "_batchId",
          "type": "uint256"
        }
      ],
      "name": "getBatchHistoryCount",
      "outputs": [
        {
          "internalType": "uint256",
          "name": "",
          "type": "uint256"
        }
      ],
      "stateMutability": "view",
      "type": "function"
    },
    {
      "inputs": [
        {
          "internalType": "address",
          "name": "_userAddress",
          "type": "address"
        }
      ],
      "name": "getUser",
      "outputs": [
        {
          "components": [
            {
              "internalType": "address",
              "name": "userAddress",
              "type": "address"
            },
            {
              "internalType": "string",
              "name": "name",
              "type": "string"
            },
            {
              "internalType": "enum SupplyChain.Role",
              "name": "role",
              "type": "uint8"
            },
            {
              "internalType": "bool",
              "name": "active",
              "type": "bool"
            }
          ],
          "internalType": "struct SupplyChain.User",
          "name": "",
          "type": "tuple"
        }
      ],
      "stateMutability": "view",
      "type": "function"
    },
    {
      "inputs": [],
      "name": "getUserCount",
      "outputs": [
        {
          "internalType": "uint256",
          "name": "",
          "type": "uint256"
        }
      ],
      "stateMutability": "view",
      "type": "function"
    },
    {
      "inputs": [
        {
          "internalType": "address",
          "name": "_userAddress",
          "type": "address"
        }
      ],
      "name": "reactivateUser",
      "outputs": [],
      "stateMutability": "nonpayable",
      "type": "function"
    },
    {
      "inputs": [
        {
          "internalType": "address",
          "name": "_userAddress",
          "type": "address"
        },
        {
          "internalType": "string",
          "name": "_name",
          "type": "string"
        },
        {
          "internalType": "enum SupplyChain.Role",
          "name": "_role",
          "type": "uint8"
        },
        {
          "internalType": "bytes32",
          "name": "_passwordHash",
          "type": "bytes32"
        }
      ],
      "name": "registerUser",
      "outputs": [],
      "stateMutability": "nonpayable",
      "type": "function"
    },
    {
      "inputs": [
        {
          "internalType": "uint256",
          "name": "_batchId",
          "type": "uint256"
        },
        {
          "internalType": "address",
          "name": "_newHolder",
          "type": "address"
        }
      ],
      "name": "transferBatch",
      "outputs": [],
      "stateMutability": "nonpayable",
      "type": "function"
    },
    {
      "inputs": [
        {
          "internalType": "uint256",
          "name": "_batchId",
          "type": "uint256"
        },
        {
          "internalType": "enum SupplyChain.Status",
          "name": "_newStatus",
          "type": "uint8"
        },
        {
          "internalType": "string",
          "name": "_location",
          "type": "string"
        },
        {
          "internalType": "string",
          "name": "_notes",
          "type": "string"
        }
      ],
      "name": "updateBatchStatus",
      "outputs": [],
      "stateMutability": "nonpayable",
      "type": "function"
    },
    {
      "inputs": [
        {
          "internalType": "uint256",
          "name": "",
          "type": "uint256"
        }
      ],
      "name": "userAddresses",
      "outputs": [
        {
          "internalType": "address",
          "name": "",
          "type": "address"
        }
      ],
      "stateMutability": "view",
      "type": "function"
    },
    {
      "inputs": [
        {
          "internalType": "address",
          "name": "",
          "type": "address"
        }
      ],
      "name": "users",
      "outputs": [
        {
          "internalType": "address",
          "name": "userAddress",
          "type": "address"
        },
        {
          "internalType": "string",
          "name": "name",
          "type": "string"
        },
        {
          "internalType": "enum SupplyChain.Role",
          "name": "role",
          "type": "uint8"
        },
        {
          "internalType": "bool",
          "name": "active",
          "type": "bool"
        }
      ],
      "stateMutability": "view",
      "type": "function"
    },
    {
      "inputs": [
        {
          "internalType": "string",
          "name": "_username",
          "type": "string"
        },
        {
          "internalType": "bytes32",
          "name": "_passwordHash",
          "type": "bytes32"
        }
      ],
      "name": "verifyLogin",
      "outputs": [
        {
          "internalType": "bool",
          "name": "",
          "type": "bool"
        },
        {
          "internalType": "address",
          "name": "",
          "type": "address"
        }
      ],
      "stateMutability": "view",
      "type": "function"
    }
  ],
  "bytecode": "0x60a060405234801561001057600080fd5b5060405161581738038061581783398181016040528101906100329190610369565b3373ffffffffffffffffffffffffffffffffffffffff1660808173ffffffffffffffffffffffffffffffffffffffff168152505060405180608001604052803373ffffffffffffffffffffffffffffffffffffffff1681526020016040518060400160405280600581526020017f61646d696e0000000000000000000000000000000000000000000000000000008152508152602001600160068111156100dc576100db610396565b5b815260200160011515815250600160003373ffffffffffffffffffffffffffffffffffffffff1673ffffffffffffffffffffffffffffffffffffffff16815260200190815260200160002060008201518160000160006101000a81548173ffffffffffffffffffffffffffffffffffffffff021916908373ffffffffffffffffffffffffffffffffffffffff16021790555060208201518160010190816101839190610615565b5060408201518160020160006101000a81548160ff021916908360068111156101af576101ae610396565b5b021790555060608201518160020160016101000a81548160ff0219169083151502179055509050503360066040516101e69061073e565b908152602001604051809103902060006101000a81548173ffffffffffffffffffffffffffffffffffffffff021916908373ffffffffffffffffffffffffffffffffffffffff16021790555080600760003373ffffffffffffffffffffffffffffffffffffffff1673ffffffffffffffffffffffffffffffffffffffff168152602001908152602001600020819055506004339080600181540180825580915050600190039060005260206000200160009091909190916101000a81548173ffffffffffffffffffffffffffffffffffffffff021916908373ffffffffffffffffffffffffffffffffffffffff1602179055503373ffffffffffffffffffffffffffffffffffffffff167fc2e5d5da58bd71d1a2d14cdef02a4256d971b728088f8190d067ccfbae3bd73e600160405161032091906107f8565b60405180910390a250610826565b600080fd5b6000819050919050565b61034681610333565b811461035157600080fd5b50565b6000815190506103638161033d565b92915050565b60006020828403121561037f5761037e61032e565b5b600061038d84828501610354565b91505092915050565b7f4e487b7100000000000000000000000000000000000000000000000000000000600052602160045260246000fd5b600081519050919050565b7f4e487b7100000000000000000000000000000000000000000000000000000000600052604160045260246000fd5b7f4e487b7100000000000000000000000000000000000000000000000000000000600052602260045260246000fd5b6000600282049050600182168061044657607f821691505b602082108103610459576104586103ff565b5b50919050565b60008190508160005260206000209050919050565b60006020601f8301049050919050565b600082821b905092915050565b6000600883026104c17fffffffffffffffffffffffffffffffffffffffffffffffffffffffffffffffff82610484565b6104cb8683610484565b95508019841693508086168417925050509392505050565b6000819050919050565b6000819050919050565b600061051261050d610508846104e3565b6104ed565b6104e3565b9050919050565b6000819050919050565b61052c836104f7565b61054061053882610519565b848454610491565b825550505050565b600090565b610555610548565b610560818484610523565b505050565b5b818110156105845761057960008261054d565b600181019050610566565b5050565b601f8211156105c95761059a8161045f565b6105a384610474565b810160208510156105b2578190505b6105c66105be85610474565b830182610565565b50505b505050565b600082821c905092915050565b60006105ec600019846008026105ce565b1980831691505092915050565b600061060583836105db565b9150826002028217905092915050565b61061e826103c5565b67ffffffffffffffff811115610637576106366103d0565b5b610641825461042e565b61064c828285610588565b600060209050601f83116001811461067f576000841561066d578287015190505b61067785826105f9565b8655506106df565b601f19841661068d8661045f565b60005b828110156106b557848901518255600182019150602085019450602081019050610690565b868310156106d257848901516106ce601f8916826105db565b8355505b6001600288020188555050505b505050505050565b600081905092915050565b7f61646d696e000000000000000000000000000000000000000000000000000000600082015250565b60006107286005836106e7565b9150610733826106f2565b600582019050919050565b60006107498261071b565b9150819050919050565b600082825260208201905092915050565b7f41646d696e000000000000000000000000000000000000000000000000000000600082015250565b600061079a600583610753565b91506107a582610764565b602082019050919050565b600781106107c1576107c0610396565b5b50565b60008190506107d2826107b0565b919050565b60006107e2826107c4565b9050919050565b6107f2816107d7565b82525050565b600060408201905081810360008301526108118161078d565b905061082060208301846107e9565b92915050565b608051614fba61085d600039600081816108c1015281816109de01528181611b750152818161203101526131e90152614fba6000f3fe608060405234801561001057600080fd5b506004361061014d5760003560e01c80636f77926b116100c3578063b32c4d8d1161007c578063b32c4d8d146103ee578063b3d346b914610426578063b5cb15f714610456578063bce0694714610474578063c7a8ccb114610492578063f851a440146104c25761014d565b80636f77926b1461030357806381a29457146103335780639000cb961461034f5780639751c6a914610383578063a87430ba1461039f578063ac999985146103d25761014d565b80632f330023116101155780632f3300231461020857806346d82e1a14610226578063502c9bd5146102575780635ac4428214610287578063621f2b0e146102b75780636322961d146102d35761014d565b806306f1305614610152578063171d44dd146101705780631a47767b1461018c57806326c54f6d146101a85780632b2ce593146101d8575b600080fd5b61015a6104e0565b6040516101679190613314565b60405180910390f35b61018a60048036038101906101859190613365565b6104e6565b005b6101a660048036038101906101a191906133f0565b6108bf565b005b6101c260048036038101906101bd91906134a7565b610b0b565b6040516101cf9190613314565b60405180910390f35b6101f260048036038101906101ed9190613365565b6110ef565b6040516101ff9190613314565b60405180910390f35b61021061110f565b60405161021d91906135fa565b60405180910390f35b610240600480360381019061023b9190613652565b61119d565b60405161024e9291906136dc565b60405180910390f35b610271600480360381019061026c9190613365565b6112eb565b60405161027e9190613705565b60405180910390f35b6102a1600480360381019061029c9190613365565b61132a565b6040516102ae9190613959565b60405180910390f35b6102d160048036038101906102cc919061397b565b61161e565b005b6102ed60048036038101906102e891906139bb565b611991565b6040516102fa9190613705565b60405180910390f35b61031d600480360381019061031891906133f0565b6119dc565b60405161032a9190613ab3565b60405180910390f35b61034d600480360381019061034891906133f0565b611b73565b005b61036960048036038101906103649190613ad5565b611e9f565b60405161037a959493929190613b6e565b60405180910390f35b61039d60048036038101906103989190613bf4565b61202f565b005b6103b960048036038101906103b491906133f0565b6125f5565b6040516103c99493929190613c8b565b60405180910390f35b6103ec60048036038101906103e79190613cfc565b6126e7565b005b61040860048036038101906104039190613365565b612d17565b60405161041d99989796959493929190613db2565b60405180910390f35b610440600480360381019061043b9190613365565b612edc565b60405161044d9190613314565b60405180910390f35b61045e612f00565b60405161046b9190613314565b60405180910390f35b61047c612f0d565b6040516104899190613efc565b60405180910390f35b6104ac60048036038101906104a79190613365565b612f65565b6040516104b9919061405d565b60405180910390f35b6104ca6131e7565b6040516104d79190613705565b60405180910390f35b60005481565b6006808111156104f9576104f86137bf565b5b600160003373ffffffffffffffffffffffffffffffffffffffff1673ffffffffffffffffffffffffffffffffffffffff16815260200190815260200160002060020160009054906101000a900460ff16600681111561055b5761055a6137bf565b5b1480156105b45750600160003373ffffffffffffffffffffffffffffffffffffffff1673ffffffffffffffffffffffffffffffffffffffff16815260200190815260200160002060020160019054906101000a900460ff165b6105f3576040517f08c379a00000000000000000000000000000000000000000000000000000000081526004016105ea906140cb565b60405180910390fd5b60008111801561060557506000548111155b610644576040517f08c379a000000000000000000000000000000000000000000000000000000000815260040161063b90614137565b60405180910390fd5b6002600082815260200190815260200160002060050160159054906101000a900460ff16156106a8576040517f08c379a000000000000000000000000000000000000000000000000000000000815260040161069f906141a3565b60405180910390fd5b60016002600083815260200190815260200160002060050160156101000a81548160ff021916908315150217905550600360008281526020019081526020016000206040518060a001604052804281526020016040518060200160405280600081525081526020013373ffffffffffffffffffffffffffffffffffffffff1681526020016002600085815260200190815260200160002060050160009054906101000a900460ff166003811115610762576107616137bf565b5b81526020016040518060400160405280601681526020017f43657274696669656420627920726567756c61746f720000000000000000000081525081525090806001815401808255809150506001900390600052602060002090600402016000909190919091506000820151816000015560208201518160010190816107e891906143fe565b5060408201518160020160006101000a81548173ffffffffffffffffffffffffffffffffffffffff021916908373ffffffffffffffffffffffffffffffffffffffff16021790555060608201518160020160146101000a81548160ff0219169083600381111561085b5761085a6137bf565b5b0217905550608082015181600301908161087591906143fe565b5050503373ffffffffffffffffffffffffffffffffffffffff16817fe9032a38d3bb348b07a81e09f3e2520d5c794cf6ccf9f98e243b51f3f11f675d60405160405180910390a350565b7f000000000000000000000000000000000000000000000000000000000000000073ffffffffffffffffffffffffffffffffffffffff163373ffffffffffffffffffffffffffffffffffffffff161461094d576040517f08c379a00000000000000000000000000000000000000000000000000000000081526004016109449061451c565b60405180910390fd5b600160008273ffffffffffffffffffffffffffffffffffffffff1673ffffffffffffffffffffffffffffffffffffffff16815260200190815260200160002060020160019054906101000a900460ff166109dc576040517f08c379a00000000000000000000000000000000000000000000000000000000081526004016109d390614588565b60405180910390fd5b7f000000000000000000000000000000000000000000000000000000000000000073ffffffffffffffffffffffffffffffffffffffff168173ffffffffffffffffffffffffffffffffffffffff1603610a6a576040517f08c379a0000000000000000000000000000000000000000000000000000000008152600401610a61906145f4565b60405180910390fd5b6000600160008373ffffffffffffffffffffffffffffffffffffffff1673ffffffffffffffffffffffffffffffffffffffff16815260200190815260200160002060020160016101000a81548160ff0219169083151502179055508073ffffffffffffffffffffffffffffffffffffffff167f5554feec4e87bc4eba14bd62f71df68156f97d26128616fbc27d28e33b35a6b460405160405180910390a250565b600060026006811115610b2157610b206137bf565b5b600160003373ffffffffffffffffffffffffffffffffffffffff1673ffffffffffffffffffffffffffffffffffffffff16815260200190815260200160002060020160009054906101000a900460ff166006811115610b8357610b826137bf565b5b148015610bdc5750600160003373ffffffffffffffffffffffffffffffffffffffff1673ffffffffffffffffffffffffffffffffffffffff16815260200190815260200160002060020160019054906101000a900460ff165b610c1b576040517f08c379a0000000000000000000000000000000000000000000000000000000008152600401610c1290614660565b60405180910390fd5b600080815480929190610c2d906146af565b9190505550600054905060405180610120016040528082815260200187878080601f016020809104026020016040519081016040528093929190818152602001838380828437600081840152601f19601f820116905080830192505050505050508152602001856001811115610ca657610ca56137bf565b5b815260200184848080601f016020809104026020016040519081016040528093929190818152602001838380828437600081840152601f19601f82011690508083019250505050505050815260200142815260200160006003811115610d0f57610d0e6137bf565b5b81526020013373ffffffffffffffffffffffffffffffffffffffff1681526020016000151581526020013373ffffffffffffffffffffffffffffffffffffffff1681525060026000838152602001908152602001600020600082015181600001556020820151816001019081610d8591906143fe565b5060408201518160020160006101000a81548160ff02191690836001811115610db157610db06137bf565b5b02179055506060820151816003019081610dcb91906143fe565b506080820151816004015560a08201518160050160006101000a81548160ff02191690836003811115610e0157610e006137bf565b5b021790555060c08201518160050160016101000a81548173ffffffffffffffffffffffffffffffffffffffff021916908373ffffffffffffffffffffffffffffffffffffffff16021790555060e08201518160050160156101000a81548160ff0219169083151502179055506101008201518160060160006101000a81548173ffffffffffffffffffffffffffffffffffffffff021916908373ffffffffffffffffffffffffffffffffffffffff1602179055509050506005819080600181540180825580915050600190039060005260206000200160009091909190915055600360008281526020019081526020016000206040518060a0016040528042815260200185858080601f016020809104026020016040519081016040528093929190818152602001838380828437600081840152601f19601f8201169050808301925050505050505081526020013373ffffffffffffffffffffffffffffffffffffffff16815260200160006003811115610f7f57610f7e6137bf565b5b81526020016040518060400160405280601981526020017f426174636820637265617465642062792070726f647563657200000000000000815250815250908060018154018082558091505060019003906000526020600020906004020160009091909190915060008201518160000155602082015181600101908161100591906143fe565b5060408201518160020160006101000a81548173ffffffffffffffffffffffffffffffffffffffff021916908373ffffffffffffffffffffffffffffffffffffffff16021790555060608201518160020160146101000a81548160ff02191690836003811115611078576110776137bf565b5b0217905550608082015181600301908161109291906143fe565b5050503373ffffffffffffffffffffffffffffffffffffffff16817f455fe5771863ad206137a00ecd2103bf528ba811090f3610fb2045972787ea4488886040516110de929190614733565b60405180910390a395945050505050565b600060036000838152602001908152602001600020805490509050919050565b6060600480548060200260200160405190810160405280929190818152602001828054801561119357602002820191906000526020600020905b8160009054906101000a900473ffffffffffffffffffffffffffffffffffffffff1673ffffffffffffffffffffffffffffffffffffffff1681526020019060010190808311611149575b5050505050905090565b6000806000600686866040516111b4929190614787565b908152602001604051809103902060009054906101000a900473ffffffffffffffffffffffffffffffffffffffff169050600073ffffffffffffffffffffffffffffffffffffffff168173ffffffffffffffffffffffffffffffffffffffff16036112265760008092509250506112e3565b600160008273ffffffffffffffffffffffffffffffffffffffff1673ffffffffffffffffffffffffffffffffffffffff16815260200190815260200160002060020160019054906101000a900460ff166112875760008092509250506112e3565b83600760008373ffffffffffffffffffffffffffffffffffffffff1673ffffffffffffffffffffffffffffffffffffffff16815260200190815260200160002054146112da5760008092509250506112e3565b60018192509250505b935093915050565b600481815481106112fb57600080fd5b906000526020600020016000915054906101000a900473ffffffffffffffffffffffffffffffffffffffff1681565b61133261320b565b60008211801561134457506000548211155b611383576040517f08c379a000000000000000000000000000000000000000000000000000000000815260040161137a90614137565b60405180910390fd5b6002600083815260200190815260200160002060405180610120016040529081600082015481526020016001820180546113bc90614221565b80601f01602080910402602001604051908101604052809291908181526020018280546113e890614221565b80156114355780601f1061140a57610100808354040283529160200191611435565b820191906000526020600020905b81548152906001019060200180831161141857829003601f168201915b505050505081526020016002820160009054906101000a900460ff166001811115611463576114626137bf565b5b6001811115611475576114746137bf565b5b815260200160038201805461148990614221565b80601f01602080910402602001604051908101604052809291908181526020018280546114b590614221565b80156115025780601f106114d757610100808354040283529160200191611502565b820191906000526020600020905b8154815290600101906020018083116114e557829003601f168201915b50505050508152602001600482015481526020016005820160009054906101000a900460ff16600381111561153a576115396137bf565b5b600381111561154c5761154b6137bf565b5b81526020016005820160019054906101000a900473ffffffffffffffffffffffffffffffffffffffff1673ffffffffffffffffffffffffffffffffffffffff1673ffffffffffffffffffffffffffffffffffffffff1681526020016005820160159054906101000a900460ff161515151581526020016006820160009054906101000a900473ffffffffffffffffffffffffffffffffffffffff1673ffffffffffffffffffffffffffffffffffffffff1673ffffffffffffffffffffffffffffffffffffffff16815250509050919050565b600160003373ffffffffffffffffffffffffffffffffffffffff1673ffffffffffffffffffffffffffffffffffffffff16815260200190815260200160002060020160019054906101000a900460ff166116ad576040517f08c379a00000000000000000000000000000000000000000000000000000000081526004016116a490614812565b60405180910390fd5b813373ffffffffffffffffffffffffffffffffffffffff166002600083815260200190815260200160002060050160019054906101000a900473ffffffffffffffffffffffffffffffffffffffff1673ffffffffffffffffffffffffffffffffffffffff1614611752576040517f08c379a0000000000000000000000000000000000000000000000000000000008152600401611749906148a4565b60405180910390fd5b60008311801561176457506000548311155b6117a3576040517f08c379a000000000000000000000000000000000000000000000000000000000815260040161179a90614137565b60405180910390fd5b600160008373ffffffffffffffffffffffffffffffffffffffff1673ffffffffffffffffffffffffffffffffffffffff16815260200190815260200160002060020160019054906101000a900460ff16611832576040517f08c379a000000000000000000000000000000000000000000000000000000000815260040161182990614936565b60405180910390fd5b3373ffffffffffffffffffffffffffffffffffffffff168273ffffffffffffffffffffffffffffffffffffffff16036118a0576040517f08c379a0000000000000000000000000000000000000000000000000000000008152600401611897906149a2565b60405180910390fd5b60006002600085815260200190815260200160002060050160019054906101000a900473ffffffffffffffffffffffffffffffffffffffff169050826002600086815260200190815260200160002060050160016101000a81548173ffffffffffffffffffffffffffffffffffffffff021916908373ffffffffffffffffffffffffffffffffffffffff1602179055508273ffffffffffffffffffffffffffffffffffffffff168173ffffffffffffffffffffffffffffffffffffffff16857fb9f31d1b8db0327a09cde76de6662ee23a4ecd72fbb0411cdfa7969fed7abe4460405160405180910390a450505050565b6000600683836040516119a5929190614787565b908152602001604051809103902060009054906101000a900473ffffffffffffffffffffffffffffffffffffffff16905092915050565b6119e46132a9565b600160008373ffffffffffffffffffffffffffffffffffffffff1673ffffffffffffffffffffffffffffffffffffffff1681526020019081526020016000206040518060800160405290816000820160009054906101000a900473ffffffffffffffffffffffffffffffffffffffff1673ffffffffffffffffffffffffffffffffffffffff1673ffffffffffffffffffffffffffffffffffffffff168152602001600182018054611a9490614221565b80601f0160208091040260200160405190810160405280929190818152602001828054611ac090614221565b8015611b0d5780601f10611ae257610100808354040283529160200191611b0d565b820191906000526020600020905b815481529060010190602001808311611af057829003601f168201915b505050505081526020016002820160009054906101000a900460ff166006811115611b3b57611b3a6137bf565b5b6006811115611b4d57611b4c6137bf565b5b81526020016002820160019054906101000a900460ff1615151515815250509050919050565b7f000000000000000000000000000000000000000000000000000000000000000073ffffffffffffffffffffffffffffffffffffffff163373ffffffffffffffffffffffffffffffffffffffff1614611c01576040517f08c379a0000000000000000000000000000000000000000000000000000000008152600401611bf89061451c565b60405180910390fd5b600160008273ffffffffffffffffffffffffffffffffffffffff1673ffffffffffffffffffffffffffffffffffffffff16815260200190815260200160002060020160019054906101000a900460ff1615611c91576040517f08c379a0000000000000000000000000000000000000000000000000000000008152600401611c8890614a0e565b60405180910390fd5b600073ffffffffffffffffffffffffffffffffffffffff16600160008373ffffffffffffffffffffffffffffffffffffffff1673ffffffffffffffffffffffffffffffffffffffff16815260200190815260200160002060000160009054906101000a900473ffffffffffffffffffffffffffffffffffffffff1673ffffffffffffffffffffffffffffffffffffffff1603611d62576040517f08c379a0000000000000000000000000000000000000000000000000000000008152600401611d5990614a7a565b60405180910390fd5b60018060008373ffffffffffffffffffffffffffffffffffffffff1673ffffffffffffffffffffffffffffffffffffffff16815260200190815260200160002060020160016101000a81548160ff0219169083151502179055508073ffffffffffffffffffffffffffffffffffffffff167fc2e5d5da58bd71d1a2d14cdef02a4256d971b728088f8190d067ccfbae3bd73e600160008473ffffffffffffffffffffffffffffffffffffffff1673ffffffffffffffffffffffffffffffffffffffff168152602001908152602001600020600101600160008573ffffffffffffffffffffffffffffffffffffffff1673ffffffffffffffffffffffffffffffffffffffff16815260200190815260200160002060020160009054906101000a900460ff16604051611e94929190614b1e565b60405180910390a250565b60036020528160005260406000208181548110611ebb57600080fd5b906000526020600020906004020160009150915050806000015490806001018054611ee590614221565b80601f0160208091040260200160405190810160405280929190818152602001828054611f1190614221565b8015611f5e5780601f10611f3357610100808354040283529160200191611f5e565b820191906000526020600020905b815481529060010190602001808311611f4157829003601f168201915b5050505050908060020160009054906101000a900473ffffffffffffffffffffffffffffffffffffffff16908060020160149054906101000a900460ff1690806003018054611fac90614221565b80601f0160208091040260200160405190810160405280929190818152602001828054611fd890614221565b80156120255780601f10611ffa57610100808354040283529160200191612025565b820191906000526020600020905b81548152906001019060200180831161200857829003601f168201915b5050505050905085565b7f000000000000000000000000000000000000000000000000000000000000000073ffffffffffffffffffffffffffffffffffffffff163373ffffffffffffffffffffffffffffffffffffffff16146120bd576040517f08c379a00000000000000000000000000000000000000000000000000000000081526004016120b49061451c565b60405180910390fd5b600073ffffffffffffffffffffffffffffffffffffffff168573ffffffffffffffffffffffffffffffffffffffff160361212c576040517f08c379a000000000000000000000000000000000000000000000000000000000815260040161212390614b9a565b60405180910390fd5b600060068111156121405761213f6137bf565b5b826006811115612153576121526137bf565b5b03612193576040517f08c379a000000000000000000000000000000000000000000000000000000000815260040161218a90614c06565b60405180910390fd5b600160008673ffffffffffffffffffffffffffffffffffffffff1673ffffffffffffffffffffffffffffffffffffffff16815260200190815260200160002060020160019054906101000a900460ff1615612223576040517f08c379a000000000000000000000000000000000000000000000000000000000815260040161221a90614c72565b60405180910390fd5b600073ffffffffffffffffffffffffffffffffffffffff166006858560405161224d929190614787565b908152602001604051809103902060009054906101000a900473ffffffffffffffffffffffffffffffffffffffff1673ffffffffffffffffffffffffffffffffffffffff16146122d2576040517f08c379a00000000000000000000000000000000000000000000000000000000081526004016122c990614cde565b60405180910390fd5b6000801b8103612317576040517f08c379a000000000000000000000000000000000000000000000000000000000815260040161230e90614d4a565b60405180910390fd5b60405180608001604052808673ffffffffffffffffffffffffffffffffffffffff16815260200185858080601f016020809104026020016040519081016040528093929190818152602001838380828437600081840152601f19601f82011690508083019250505050505050815260200183600681111561239b5761239a6137bf565b5b815260200160011515815250600160008773ffffffffffffffffffffffffffffffffffffffff1673ffffffffffffffffffffffffffffffffffffffff16815260200190815260200160002060008201518160000160006101000a81548173ffffffffffffffffffffffffffffffffffffffff021916908373ffffffffffffffffffffffffffffffffffffffff160217905550602082015181600101908161244291906143fe565b5060408201518160020160006101000a81548160ff0219169083600681111561246e5761246d6137bf565b5b021790555060608201518160020160016101000a81548160ff02191690831515021790555090505084600685856040516124a9929190614787565b908152602001604051809103902060006101000a81548173ffffffffffffffffffffffffffffffffffffffff021916908373ffffffffffffffffffffffffffffffffffffffff16021790555080600760008773ffffffffffffffffffffffffffffffffffffffff1673ffffffffffffffffffffffffffffffffffffffff168152602001908152602001600020819055506004859080600181540180825580915050600190039060005260206000200160009091909190916101000a81548173ffffffffffffffffffffffffffffffffffffffff021916908373ffffffffffffffffffffffffffffffffffffffff1602179055508473ffffffffffffffffffffffffffffffffffffffff167fc2e5d5da58bd71d1a2d14cdef02a4256d971b728088f8190d067ccfbae3bd73e8585856040516125e693929190614d6a565b60405180910390a25050505050565b60016020528060005260406000206000915090508060000160009054906101000a900473ffffffffffffffffffffffffffffffffffffffff169080600101805461263e90614221565b80601f016020809104026020016040519081016040528092919081815260200182805461266a90614221565b80156126b75780601f1061268c576101008083540402835291602001916126b7565b820191906000526020600020905b81548152906001019060200180831161269a57829003601f168201915b5050505050908060020160009054906101000a900460ff16908060020160019054906101000a900460ff16905084565b600160003373ffffffffffffffffffffffffffffffffffffffff1673ffffffffffffffffffffffffffffffffffffffff16815260200190815260200160002060020160019054906101000a900460ff16612776576040517f08c379a000000000000000000000000000000000000000000000000000000000815260040161276d90614812565b60405180910390fd5b853373ffffffffffffffffffffffffffffffffffffffff166002600083815260200190815260200160002060050160019054906101000a900473ffffffffffffffffffffffffffffffffffffffff1673ffffffffffffffffffffffffffffffffffffffff161461281b576040517f08c379a0000000000000000000000000000000000000000000000000000000008152600401612812906148a4565b60405180910390fd5b60008711801561282d57506000548711155b61286c576040517f08c379a000000000000000000000000000000000000000000000000000000000815260040161286390614137565b60405180910390fd5b60006002600089815260200190815260200160002090506000600160003373ffffffffffffffffffffffffffffffffffffffff1673ffffffffffffffffffffffffffffffffffffffff16815260200190815260200160002060020160009054906101000a900460ff169050600160038111156128eb576128ea6137bf565b5b8860038111156128fe576128fd6137bf565b5b0361299e5760046006811115612917576129166137bf565b5b81600681111561292a576129296137bf565b5b148061295a575060026006811115612945576129446137bf565b5b816006811115612958576129576137bf565b5b145b612999576040517f08c379a000000000000000000000000000000000000000000000000000000000815260040161299090614e0e565b60405180910390fd5b612acb565b600260038111156129b2576129b16137bf565b5b8860038111156129c5576129c46137bf565b5b03612a3657600360068111156129de576129dd6137bf565b5b8160068111156129f1576129f06137bf565b5b14612a31576040517f08c379a0000000000000000000000000000000000000000000000000000000008152600401612a2890614ea0565b60405180910390fd5b612aca565b600380811115612a4957612a486137bf565b5b886003811115612a5c57612a5b6137bf565b5b03612ac95760056006811115612a7557612a746137bf565b5b816006811115612a8857612a876137bf565b5b14612ac8576040517f08c379a0000000000000000000000000000000000000000000000000000000008152600401612abf90614f32565b60405180910390fd5b5b5b5b878260050160006101000a81548160ff02191690836003811115612af257612af16137bf565b5b0217905550600360008a81526020019081526020016000206040518060a0016040528042815260200189898080601f016020809104026020016040519081016040528093929190818152602001838380828437600081840152601f19601f8201169050808301925050505050505081526020013373ffffffffffffffffffffffffffffffffffffffff1681526020018a6003811115612b9457612b936137bf565b5b815260200187878080601f016020809104026020016040519081016040528093929190818152602001838380828437600081840152601f19601f820116905080830192505050505050508152509080600181540180825580915050600190039060005260206000209060040201600090919091909150600082015181600001556020820151816001019081612c2991906143fe565b5060408201518160020160006101000a81548173ffffffffffffffffffffffffffffffffffffffff021916908373ffffffffffffffffffffffffffffffffffffffff16021790555060608201518160020160146101000a81548160ff02191690836003811115612c9c57612c9b6137bf565b5b02179055506080820151816003019081612cb691906143fe565b5050503373ffffffffffffffffffffffffffffffffffffffff16897f11a80c2c58444032af790bfececa9b66ba33dce08a3ab62403c7528e85e5b6f38a8a8a604051612d0493929190614f52565b60405180910390a3505050505050505050565b6002602052806000526040600020600091509050806000015490806001018054612d4090614221565b80601f0160208091040260200160405190810160405280929190818152602001828054612d6c90614221565b8015612db95780601f10612d8e57610100808354040283529160200191612db9565b820191906000526020600020905b815481529060010190602001808311612d9c57829003601f168201915b5050505050908060020160009054906101000a900460ff1690806003018054612de190614221565b80601f0160208091040260200160405190810160405280929190818152602001828054612e0d90614221565b8015612e5a5780601f10612e2f57610100808354040283529160200191612e5a565b820191906000526020600020905b815481529060010190602001808311612e3d57829003601f168201915b5050505050908060040154908060050160009054906101000a900460ff16908060050160019054906101000a900473ffffffffffffffffffffffffffffffffffffffff16908060050160159054906101000a900460ff16908060060160009054906101000a900473ffffffffffffffffffffffffffffffffffffffff16905089565b60058181548110612eec57600080fd5b906000526020600020016000915090505481565b6000600480549050905090565b60606005805480602002602001604051908101604052809291908181526020018280548015612f5b57602002820191906000526020600020905b815481526020019060010190808311612f47575b5050505050905090565b6060600082118015612f7957506000548211155b612fb8576040517f08c379a0000000000000000000000000000000000000000000000000000000008152600401612faf90614137565b60405180910390fd5b60036000838152602001908152602001600020805480602002602001604051908101604052809291908181526020016000905b828210156131dc57838290600052602060002090600402016040518060a00160405290816000820154815260200160018201805461302890614221565b80601f016020809104026020016040519081016040528092919081815260200182805461305490614221565b80156130a15780601f10613076576101008083540402835291602001916130a1565b820191906000526020600020905b81548152906001019060200180831161308457829003601f168201915b505050505081526020016002820160009054906101000a900473ffffffffffffffffffffffffffffffffffffffff1673ffffffffffffffffffffffffffffffffffffffff1673ffffffffffffffffffffffffffffffffffffffff1681526020016002820160149054906101000a900460ff166003811115613125576131246137bf565b5b6003811115613137576131366137bf565b5b815260200160038201805461314b90614221565b80601f016020809104026020016040519081016040528092919081815260200182805461317790614221565b80156131c45780601f10613199576101008083540402835291602001916131c4565b820191906000526020600020905b8154815290600101906020018083116131a757829003601f168201915b50505050508152505081526020019060010190612feb565b505050509050919050565b7f000000000000000000000000000000000000000000000000000000000000000081565b604051806101200160405280600081526020016060815260200160006001811115613239576132386137bf565b5b81526020016060815260200160008152602001600060038111156132605761325f6137bf565b5b8152602001600073ffffffffffffffffffffffffffffffffffffffff168152602001600015158152602001600073ffffffffffffffffffffffffffffffffffffffff1681525090565b6040518060800160405280600073ffffffffffffffffffffffffffffffffffffffff16815260200160608152602001600060068111156132ec576132eb6137bf565b5b81526020016000151581525090565b6000819050919050565b61330e816132fb565b82525050565b60006020820190506133296000830184613305565b92915050565b600080fd5b600080fd5b613342816132fb565b811461334d57600080fd5b50565b60008135905061335f81613339565b92915050565b60006020828403121561337b5761337a61332f565b5b600061338984828501613350565b91505092915050565b600073ffffffffffffffffffffffffffffffffffffffff82169050919050565b60006133bd82613392565b9050919050565b6133cd816133b2565b81146133d857600080fd5b50565b6000813590506133ea816133c4565b92915050565b6000602082840312156134065761340561332f565b5b6000613414848285016133db565b91505092915050565b600080fd5b600080fd5b600080fd5b60008083601f8401126134425761344161341d565b5b8235905067ffffffffffffffff81111561345f5761345e613422565b5b60208301915083600182028301111561347b5761347a613427565b5b9250929050565b6002811061348f57600080fd5b50565b6000813590506134a181613482565b92915050565b6000806000806000606086880312156134c3576134c261332f565b5b600086013567ffffffffffffffff8111156134e1576134e0613334565b5b6134ed8882890161342c565b9550955050602061350088828901613492565b935050604086013567ffffffffffffffff81111561352157613520613334565b5b61352d8882890161342c565b92509250509295509295909350565b600081519050919050565b600082825260208201905092915050565b6000819050602082019050919050565b613571816133b2565b82525050565b60006135838383613568565b60208301905092915050565b6000602082019050919050565b60006135a78261353c565b6135b18185613547565b93506135bc83613558565b8060005b838110156135ed5781516135d48882613577565b97506135df8361358f565b9250506001810190506135c0565b5085935050505092915050565b60006020820190508181036000830152613614818461359c565b905092915050565b6000819050919050565b61362f8161361c565b811461363a57600080fd5b50565b60008135905061364c81613626565b92915050565b60008060006040848603121561366b5761366a61332f565b5b600084013567ffffffffffffffff81111561368957613688613334565b5b6136958682870161342c565b935093505060206136a88682870161363d565b9150509250925092565b60008115159050919050565b6136c7816136b2565b82525050565b6136d6816133b2565b82525050565b60006040820190506136f160008301856136be565b6136fe60208301846136cd565b9392505050565b600060208201905061371a60008301846136cd565b92915050565b613729816132fb565b82525050565b600081519050919050565b600082825260208201905092915050565b60005b8381101561376957808201518184015260208101905061374e565b60008484015250505050565b6000601f19601f8301169050919050565b60006137918261372f565b61379b818561373a565b93506137ab81856020860161374b565b6137b481613775565b840191505092915050565b7f4e487b7100000000000000000000000000000000000000000000000000000000600052602160045260246000fd5b600281106137ff576137fe6137bf565b5b50565b6000819050613810826137ee565b919050565b600061382082613802565b9050919050565b61383081613815565b82525050565b60048110613847576138466137bf565b5b50565b600081905061385882613836565b919050565b60006138688261384a565b9050919050565b6138788161385d565b82525050565b613887816136b2565b82525050565b6000610120830160008301516138a66000860182613720565b50602083015184820360208601526138be8282613786565b91505060408301516138d36040860182613827565b50606083015184820360608601526138eb8282613786565b91505060808301516139006080860182613720565b5060a083015161391360a086018261386f565b5060c083015161392660c0860182613568565b5060e083015161393960e086018261387e565b5061010083015161394e610100860182613568565b508091505092915050565b60006020820190508181036000830152613973818461388d565b905092915050565b600080604083850312156139925761399161332f565b5b60006139a085828601613350565b92505060206139b1858286016133db565b9150509250929050565b600080602083850312156139d2576139d161332f565b5b600083013567ffffffffffffffff8111156139f0576139ef613334565b5b6139fc8582860161342c565b92509250509250929050565b60078110613a1957613a186137bf565b5b50565b6000819050613a2a82613a08565b919050565b6000613a3a82613a1c565b9050919050565b613a4a81613a2f565b82525050565b6000608083016000830151613a686000860182613568565b5060208301518482036020860152613a808282613786565b9150506040830151613a956040860182613a41565b506060830151613aa8606086018261387e565b508091505092915050565b60006020820190508181036000830152613acd8184613a50565b905092915050565b60008060408385031215613aec57613aeb61332f565b5b6000613afa85828601613350565b9250506020613b0b85828601613350565b9150509250929050565b600082825260208201905092915050565b6000613b318261372f565b613b3b8185613b15565b9350613b4b81856020860161374b565b613b5481613775565b840191505092915050565b613b688161385d565b82525050565b600060a082019050613b836000830188613305565b8181036020830152613b958187613b26565b9050613ba460408301866136cd565b613bb16060830185613b5f565b8181036080830152613bc38184613b26565b90509695505050505050565b60078110613bdc57600080fd5b50565b600081359050613bee81613bcf565b92915050565b600080600080600060808688031215613c1057613c0f61332f565b5b6000613c1e888289016133db565b955050602086013567ffffffffffffffff811115613c3f57613c3e613334565b5b613c4b8882890161342c565b94509450506040613c5e88828901613bdf565b9250506060613c6f8882890161363d565b9150509295509295909350565b613c8581613a2f565b82525050565b6000608082019050613ca060008301876136cd565b8181036020830152613cb28186613b26565b9050613cc16040830185613c7c565b613cce60608301846136be565b95945050505050565b60048110613ce457600080fd5b50565b600081359050613cf681613cd7565b92915050565b60008060008060008060808789031215613d1957613d1861332f565b5b6000613d2789828a01613350565b9650506020613d3889828a01613ce7565b955050604087013567ffffffffffffffff811115613d5957613d58613334565b5b613d6589828a0161342c565b9450945050606087013567ffffffffffffffff811115613d8857613d87613334565b5b613d9489828a0161342c565b92509250509295509295509295565b613dac81613815565b82525050565b600061012082019050613dc8600083018c613305565b8181036020830152613dda818b613b26565b9050613de9604083018a613da3565b8181036060830152613dfb8189613b26565b9050613e0a6080830188613305565b613e1760a0830187613b5f565b613e2460c08301866136cd565b613e3160e08301856136be565b613e3f6101008301846136cd565b9a9950505050505050505050565b600081519050919050565b600082825260208201905092915050565b6000819050602082019050919050565b6000613e858383613720565b60208301905092915050565b6000602082019050919050565b6000613ea982613e4d565b613eb38185613e58565b9350613ebe83613e69565b8060005b83811015613eef578151613ed68882613e79565b9750613ee183613e91565b925050600181019050613ec2565b5085935050505092915050565b60006020820190508181036000830152613f168184613e9e565b905092915050565b600081519050919050565b600082825260208201905092915050565b6000819050602082019050919050565b600060a083016000830151613f626000860182613720565b5060208301518482036020860152613f7a8282613786565b9150506040830151613f8f6040860182613568565b506060830151613fa2606086018261386f565b5060808301518482036080860152613fba8282613786565b9150508091505092915050565b6000613fd38383613f4a565b905092915050565b6000602082019050919050565b6000613ff382613f1e565b613ffd8185613f29565b93508360208202850161400f85613f3a565b8060005b8581101561404b578484038952815161402c8582613fc7565b945061403783613fdb565b925060208a01995050600181019050614013565b50829750879550505050505092915050565b600060208201905081810360008301526140778184613fe8565b905092915050565b7f4163636573732064656e6965643a206f6e6c7920526567756c61746f72000000600082015250565b60006140b5601d83613b15565b91506140c08261407f565b602082019050919050565b600060208201905081810360008301526140e4816140a8565b9050919050565b7f426174636820646f6573206e6f74206578697374000000000000000000000000600082015250565b6000614121601483613b15565b915061412c826140eb565b602082019050919050565b6000602082019050818103600083015261415081614114565b9050919050565b7f426174636820616c726561647920636572746966696564000000000000000000600082015250565b600061418d601783613b15565b915061419882614157565b602082019050919050565b600060208201905081810360008301526141bc81614180565b9050919050565b7f4e487b7100000000000000000000000000000000000000000000000000000000600052604160045260246000fd5b7f4e487b7100000000000000000000000000000000000000000000000000000000600052602260045260246000fd5b6000600282049050600182168061423957607f821691505b60208210810361424c5761424b6141f2565b5b50919050565b60008190508160005260206000209050919050565b60006020601f8301049050919050565b600082821b905092915050565b6000600883026142b47fffffffffffffffffffffffffffffffffffffffffffffffffffffffffffffffff82614277565b6142be8683614277565b95508019841693508086168417925050509392505050565b6000819050919050565b60006142fb6142f66142f1846132fb565b6142d6565b6132fb565b9050919050565b6000819050919050565b614315836142e0565b61432961432182614302565b848454614284565b825550505050565b600090565b61433e614331565b61434981848461430c565b505050565b5b8181101561436d57614362600082614336565b60018101905061434f565b5050565b601f8211156143b25761438381614252565b61438c84614267565b8101602085101561439b578190505b6143af6143a785614267565b83018261434e565b50505b505050565b600082821c905092915050565b60006143d5600019846008026143b7565b1980831691505092915050565b60006143ee83836143c4565b9150826002028217905092915050565b6144078261372f565b67ffffffffffffffff8111156144205761441f6141c3565b5b61442a8254614221565b614435828285614371565b600060209050601f8311600181146144685760008415614456578287015190505b61446085826143e2565b8655506144c8565b601f19841661447686614252565b60005b8281101561449e57848901518255600182019150602085019450602081019050614479565b868310156144bb57848901516144b7601f8916826143c4565b8355505b6001600288020188555050505b505050505050565b7f4163636573732064656e6965643a206f6e6c792041646d696e00000000000000600082015250565b6000614506601983613b15565b9150614511826144d0565b602082019050919050565b60006020820190508181036000830152614535816144f9565b9050919050565b7f55736572206e6f74206163746976650000000000000000000000000000000000600082015250565b6000614572600f83613b15565b915061457d8261453c565b602082019050919050565b600060208201905081810360008301526145a181614565565b9050919050565b7f43616e6e6f7420646561637469766174652061646d696e000000000000000000600082015250565b60006145de601783613b15565b91506145e9826145a8565b602082019050919050565b6000602082019050818103600083015261460d816145d1565b9050919050565b7f4163636573732064656e6965643a206f6e6c792050726f647563657200000000600082015250565b600061464a601c83613b15565b915061465582614614565b602082019050919050565b600060208201905081810360008301526146798161463d565b9050919050565b7f4e487b7100000000000000000000000000000000000000000000000000000000600052601160045260246000fd5b60006146ba826132fb565b91507fffffffffffffffffffffffffffffffffffffffffffffffffffffffffffffffff82036146ec576146eb614680565b5b600182019050919050565b82818337600083830152505050565b60006147128385613b15565b935061471f8385846146f7565b61472883613775565b840190509392505050565b6000602082019050818103600083015261474e818486614706565b90509392505050565b600081905092915050565b600061476e8385614757565b935061477b8385846146f7565b82840190509392505050565b6000614794828486614762565b91508190509392505050565b7f4163636573732064656e6965643a206e6f742072656769737465726564206f7260008201527f20696e6163746976650000000000000000000000000000000000000000000000602082015250565b60006147fc602983613b15565b9150614807826147a0565b604082019050919050565b6000602082019050818103600083015261482b816147ef565b9050919050565b7f4163636573732064656e6965643a206e6f742063757272656e7420686f6c646560008201527f7200000000000000000000000000000000000000000000000000000000000000602082015250565b600061488e602183613b15565b915061489982614832565b604082019050919050565b600060208201905081810360008301526148bd81614881565b9050919050565b7f4e657720686f6c646572206973206e6f7420612072656769737465726564207560008201527f7365720000000000000000000000000000000000000000000000000000000000602082015250565b6000614920602383613b15565b915061492b826148c4565b604082019050919050565b6000602082019050818103600083015261494f81614913565b9050919050565b7f43616e6e6f74207472616e7366657220746f20796f757273656c660000000000600082015250565b600061498c601b83613b15565b915061499782614956565b602082019050919050565b600060208201905081810360008301526149bb8161497f565b9050919050565b7f5573657220616c72656164792061637469766500000000000000000000000000600082015250565b60006149f8601383613b15565b9150614a03826149c2565b602082019050919050565b60006020820190508181036000830152614a27816149eb565b9050919050565b7f5573657220646f6573206e6f7420657869737400000000000000000000000000600082015250565b6000614a64601383613b15565b9150614a6f82614a2e565b602082019050919050565b60006020820190508181036000830152614a9381614a57565b9050919050565b60008154614aa781614221565b614ab18186613b15565b94506001821660008114614acc5760018114614ae257614b15565b60ff198316865281151560200286019350614b15565b614aeb85614252565b60005b83811015614b0d57815481890152600182019150602081019050614aee565b808801955050505b50505092915050565b60006040820190508181036000830152614b388185614a9a565b9050614b476020830184613c7c565b9392505050565b7f496e76616c696420616464726573730000000000000000000000000000000000600082015250565b6000614b84600f83613b15565b9150614b8f82614b4e565b602082019050919050565b60006020820190508181036000830152614bb381614b77565b9050919050565b7f526f6c652063616e6e6f74206265204e6f6e6500000000000000000000000000600082015250565b6000614bf0601383613b15565b9150614bfb82614bba565b602082019050919050565b60006020820190508181036000830152614c1f81614be3565b9050919050565b7f5573657220616c72656164792072656769737465726564000000000000000000600082015250565b6000614c5c601783613b15565b9150614c6782614c26565b602082019050919050565b60006020820190508181036000830152614c8b81614c4f565b9050919050565b7f557365726e616d6520616c72656164792074616b656e00000000000000000000600082015250565b6000614cc8601683613b15565b9150614cd382614c92565b602082019050919050565b60006020820190508181036000830152614cf781614cbb565b9050919050565b7f50617373776f7264206861736820726571756972656400000000000000000000600082015250565b6000614d34601683613b15565b9150614d3f82614cfe565b602082019050919050565b60006020820190508181036000830152614d6381614d27565b9050919050565b60006040820190508181036000830152614d85818587614706565b9050614d946020830184613c7c565b949350505050565b7f4f6e6c792057617265686f757365206f722050726f64756365722063616e207360008201527f65742053746f7265640000000000000000000000000000000000000000000000602082015250565b6000614df8602983613b15565b9150614e0382614d9c565b604082019050919050565b60006020820190508181036000830152614e2781614deb565b9050919050565b7f4f6e6c79205472616e73706f727465722063616e2073657420496e5472616e7360008201527f6974000000000000000000000000000000000000000000000000000000000000602082015250565b6000614e8a602283613b15565b9150614e9582614e2e565b604082019050919050565b60006020820190508181036000830152614eb981614e7d565b9050919050565b7f4f6e6c79204469737472696275746f722063616e207365742044656c6976657260008201527f6564000000000000000000000000000000000000000000000000000000000000602082015250565b6000614f1c602283613b15565b9150614f2782614ec0565b604082019050919050565b60006020820190508181036000830152614f4b81614f0f565b9050919050565b6000604082019050614f676000830186613b5f565b8181036020830152614f7a818486614706565b905094935050505056fea2646970667358221220d3c23e30d1f1b48079f7d8da7bc5d3ee33b18fc76b41c3cb19377a49a63f7acd64736f6c634300081b0033",
  "linkReferences": {},
  "deployedLinkReferences": {}
}